:100000000C94B4010C94DC010C94DC010C94551A92
:100010000C94791A0C949D1A0C94DC010C94DC015C
:100020000C94DC010C94DC010C94DC010C94DC01DC
:100030000C94DC010C94DC010C94DC010C94DC01CC
:100040000C94CB200C94DC010C94A51D0C94D71DB2
:100050000C94DC010C94DC010C94DC010C94DC01AC
:100060000C94DC010C94DC01504F57455220444F56
:10007000574E0041542B434F4C503D310041545A90
:100080000041542B434C49503D310041542B434DCA
:1000900047463D310041542B4946433D312C310008
:1000A0002B43475245473A20302C35002B434752CB
:1000B00045473A20302C310041542B4350494E3DA6
:1000C0000041542B43475245473F00415400434CA5
:1000D0004F5345440041542B5149434C4F53450025
:1000E000434F4E4E454354204F4B0D0A0041542B75
:1000F00051494F50454E3D0041542B5149444E53B8
:1001000049503D0041542B43495053544152543DB2
:100110000041542B51494C4F434950002B504450FF
:10012000204445414354002E0041542B434946533B
:10013000520041542B43494943520041542B4349F7
:10014000505354415455530041542B43535454007D
:1001500041542B4349505354415455530041542B5F
:1001600043474154543D310041542B43474143548C
:100170003D312C310041542B434744434F4E543DB5
:10018000312C224950222C220041542B43495053F8
:1001900054415455530041542B4349504D55583DFB
:1001A000300041542B434950534855540041542B7F
:1001B00043474154543D00434F4E4E4543540D0A6E
:1001C00000434C4F5345440D0A0041542B514953B1
:1001D00045525645520041542B51494C504F5254B0
:1001E0003D22544350222C0041542B51494C4F4343
:1001F00049500041542B434D47443D0041542B434B
:100200004D474C3D2252454320554E5245414422D4
:100210002C310041542B434D47533D22002B434C7E
:1002200049503A0042555359004E4F2043415252D3
:10023000494552002B434F4C503A0052494E47001B
:10024000415448004154410041542B434C43430026
:100250004154440000C201000100110011000C00D3
:1002600000E100000A0025002500210000960000A2
:100270001900390039003600127A00001F004600CC
:10028000460044008070000022004D004D004A00EE
:10029000004B000036007500750072004038000009
:1002A0004A009C009C009900802500007200EC0030
:1002B000EC00E900C0120000E900DA01DA01D70120
:1002C00060090000D701B603B603B303B004000011
:1002D000B3036E076E076B072C010000DC0EC11D17
:1002E000C11DBE1D0000000800020100000304073C
:1002F00000000000000000000102040810204080FF
:10030000010204081020010204081020040404045F
:1003100004040404020202020202030303030303AF
:100320000000000023002600290000000000250036
:1003300028002B0000000000240027002A00B3033F
:100340003A06480653065E066D067B065609350AD0
:10035000010E000FFE101F112A1135114011D31785
:10036000C11ACF1A071E8C1E11241FBECFEFD8E072
:10037000DEBFCDBF13E0A0E0B1E0ECE5FCE402C0DD
:1003800005900D92A232B107D9F725E0A2E2B3E0C1
:1003900001C01D92AD35B207E1F711E0C4EBD1E029
:1003A00004C02197FE010E949923CF39D107C9F7D4
:1003B0000E94981E0C942C260C940000FC011082C4
:1003C0001182738362830895FC0191819F5F9F77FF
:1003D0008081981779F08181DF01A80FB11D1496F3
:1003E0006C93DF01A90FB11D14961C92918381E0DB
:1003F00090E0089580E090E00895FC019081818173
:10040000981759F08081DF01A80FB11D14968C91C7
:1004100090819F5F9F779083089580E00895FC010D
:1004200091818081891718F48181908103C0818135
:1004300090818058891B90E0681779072CF480819F
:10044000E80FF11D8481089580E00895FC01218169
:1004500020830895BF92CF92DF92EF92FF920F9385
:100460001F93CF93DF93DC01EB018881882389F10F
:1004700030E0E0E0F0E009C0311130C051E09F5FB2
:100480009F77511130C04F5F4F77421779F1942F0A
:100490006D01C90ED11CE6015C816B01CE0EDF1E21
:1004A000E60188815813E8CF311101C0B92E319689
:1004B0006B01CE0EDF1EE601888181110CC0011593
:1004C000110511F0F801B082E114F10411F0E70117
:1004D000988381E00CC051E031E0D1CF50E030E0B2
:1004E000E0E0F0E0CCCF9213D3CFCDCF80E0DF912E
:1004F000CF911F910F91FF90EF90DF90CF90BF9021
:100500000895EF92FF920F931F93FC012181408188
:10051000E12CF12C00E010E00E942A021F910F91C3
:10052000FF90EF900895AF92BF92CF92DF92EF923B
:10053000FF920F931F93CF93DF9300D0CDB7DEB719
:100540006C01B42EA22EFC0121814081CE010196C6
:100550007C018E010E5F1F4FC6010E942A02882374
:10056000A9F0AA2051F0BB2021F099819F5F9F77CD
:1005700001C09A81F601908309C0BB2021F09981C6
:100580009F5F9F7701C09A81F60191830F900F9032
:10059000DF91CF911F910F91FF90EF90DF90CF905F
:1005A000BF90AF9008958F929F92AF92BF92CF92DB
:1005B000DF92EF92FF920F931F93CF93DF9300D0C0
:1005C000CDB7DEB76C014A015901FC0121814081A0
:1005D000CE0102967C0100E010E0C6010E942A02D2
:1005E000811102C080E02BC08A8141E0480F4A831C
:1005F000F6012181E12CF12C8E010F5F1F4FB40118
:10060000C6010E942A02882369F39A8149814F77A3
:1006100050E0F501BF016A197B09292F30E024174A
:10062000350749F0D601A20FB31F14962C912193E0
:100630009F5F9F77EFCFF501E60FF71F10820F90B6
:100640000F90DF91CF911F910F91FF90EF90DF906E
:10065000CF90BF90AF909F908F900895FC019081B4
:100660009F5F60E040E020E030E07AE08181981711
:1006700011F1DF01A90FB11D14965C91503219F4EC
:10068000411105C015C05D3211F4442379F080EDAD
:10069000850F8A3080F4729FD001739FB00D1124B2
:1006A0009D01250F311D2053310901C061E041E05A
:1006B0009F5F9F77DBCF662319F031952195310934
:1006C000C9010895CF93682F80EE860F8F3570F0A3
:1006D000C62F65E28DEA94E00E94F71E4AE050E0E2
:1006E0006C2F8DEA94E00E94C61F65E28DEA94E0CB
:1006F000CF910C94F71E0F931F93CF93DF938C0130
:10070000FC01C081D1818DEA94E00E94FE1E4AE086
:1007100050E06C2F8DEA94E00E94C61F65E271E004
:100720008DEA94E00E94F51E4AE050E06D2F8DEABC
:1007300094E00E94C61F6EE38DEA94E00E94F71ECB
:10074000CD1749F0F801EC0FF11D84810E9462037E
:10075000CF5FCF77F5CF8DEA94E0DF91CF911F91F6
:100760000F910C94FE1E0F9300E020E040E060E04B
:1007700084E293E00E94801E0F910895DC011C9694
:100780006C916F3F59F08091220390912303DC011B
:10079000ED91FC910680F781E02D099480E00895A9
:1007A000DC01ED91FC910488F589E02D099591E03B
:1007B000813009F090E0892F0895CF92DF92EF9277
:1007C000FF920F931F93CF93DF937C016A018B01FC
:1007D000C0E0D0E0CC15DD0579F0D701ED91FC91BA
:1007E0000680F781E02DC7010995882329F0F801DB
:1007F00081938F012196EECFCE01DF91CF911F9192
:100800000F91FF90EF90DF90CF900895FC0113823D
:10081000128288EE93E0A0E0B0E084839583A68303
:10082000B7838BE291E091838083611102C081E004
:1008300001C085E085878FEF84870895809122032A
:1008400090912303DC01ED91FC910480F581E02D72
:100850000994CF92DF92EF92FF92CF93DF93EC0156
:100860000E9415216B017C010E941521AB01BC0186
:100870004C195D096E097F094031574261057105C8
:1008800050F0CE010E941E0421E030E0019779F083
:1008900020E030E00CC0CE010E941E04892B89F7B5
:1008A00064E670E080E090E00E944621DDCFC9015F
:1008B000DF91CF91FF90EF90DF90CF900895EF926E
:1008C000FF920F931F93CF93DF93A0912203B091D8
:1008D0002303109749F17A018B01EC01ED91FC9112
:1008E00011970084F185E02D6FEF7FEFCD01099521
:1008F0009C018C878091220390912303DC01ED9170
:10090000FC9133270484F585E02DA701B8010995F2
:100910002D8522FF0BC0CE01DF91CF911F910F914A
:10092000FF90EF900C94290482E090E0DF91CF914A
:100930001F910F91FF90EF900895CF92DF92EF9269
:10094000FF920F931F93CF93DF9300D000D000D07E
:10095000CDB7DEB7A0912203B09123031097C1F168
:100960007A016B018C01ED91FC9111970084F18566
:10097000E02D6FEF7FEFCD0109959C01D8011C960A
:100980008C938091220390912303DC01ED91FC91E3
:100990000684F785E02D41E153E05A834983D6016F
:1009A00012964D915D916D917C9115974B835C836F
:1009B0006D837E833327A701BE016F5F7F4F09954B
:1009C000F801258522FF06C0C8010E94290402C043
:1009D00082E090E026960FB6F894DEBF0FBECDBF42
:1009E000DF91CF911F910F91FF90EF90DF90CF900B
:1009F00008951F93CF93DF93EC01162F9D85892FC8
:100A000082608D87A0912203B0912303ED91FC9128
:100A100011974C8550E0692F61700088F189E02DB5
:100A2000CD010995112331F0CE01DF91CF911F91B6
:100A30000C942904DF91CF911F910895CF93C62F75
:100A4000DC011D962C9121FD03C061E00E94F90498
:100A50008091220390912303DC01ED91FC910288A7
:100A6000F389E02D6C2F099581E090E0CF910895F6
:100A7000CF92DF92EF92FF920F931F93CF93DF936A
:100A80001F92CDB7DEB7F62E8A01DC011D962C91A0
:100A900021FD05C061E079830E94F9047981CF2CA2
:100AA000D72E7601E00EF11ECE14DF0479F080918E
:100AB000220390912303F60161916F01DC01ED9116
:100AC000FC910288F389E02D0995EECFC8010F90C3
:100AD000DF91CF911F910F91FF90EF90DF90CF901A
:100AE00008950F931F93CF93DF931F92CDB7DEB777
:100AF0008C01DC011D969C911D9782E089271D9633
:100B00008C938091220390912303DC01ED91FC9161
:100B10000688F789E02D698309956981662341F08C
:100B2000C8010F90DF91CF911F910F910C94290470
:100B30000F90DF91CF911F910F910895CF93DF9385
:100B4000EC018D8581FF04C061E0CE010E9471053A
:100B50008091220390912303DC01ED91FC914C855F
:100B600050E06D856170008CF18DE02D09952D852B
:100B700022FF05C0CE01DF91CF910C942904DF91B3
:100B8000CF910895DC011D962C9121FF03C061E0F7
:100B90000E9471058091220390912303DC01ED9165
:100BA000FC91028CF38DE02D0994DC011D962C91B3
:100BB00021FF03C061E00E947105809122039091A2
:100BC0002303DC01ED91FC91068CF78DE02D099457
:100BD000CF93DF93EC018D8581FF04C061E0CE01EE
:100BE0000E9471058091220390912303DC01ED9115
:100BF000FC91048CF58DE02D09958D8582FF05C053
:100C0000CE01DF91CF910C942904DF91CF9108950B
:100C1000CF93DF93EC018D8581FF04C061E0CE01AD
:100C20000E9471058091220390912303DC01ED91D4
:100C3000FC914C8550E06D85617000A0F1A1E02D24
:100C400009958091220390912303DC01ED91FC91A1
:100C50006C8570E00284F385E02D09951C868D85F6
:100C600082FF05C0CE01DF91CF910C942904DF9162
:100C7000CF9108950F9300E020E040E060E089E329
:100C800093E00E94801E8AE293E00F910C941F0A69
:100C90000F9300E020E040E060E08FE393E00E94EB
:100CA000801E0F9108950F9300E020E040E060E087
:100CB00085E493E00E94801E0F9108950F9300E059
:100CC00020E040E060E08DE493E00E94801E1092FE
:100CD0004C0310924B030F9108950F9300E020E016
:100CE00040E060E089E593E00E94801E85E593E0A6
:100CF0000F910C9465110F9300E020E040E060E05C
:100D000083E693E00E94801E0F91089580E008958D
:100D100002960C94610961E087E00E94E62161E09F
:100D200087E00E94222264E873E080E090E00E9465
:100D3000462160E087E00E94222286E080939103B2
:100D40008EE993E00E942B1881E00895CF92DF9204
:100D5000EF92FF920F931F93CF93DF93CDB7DEB740
:100D600063970FB6F894DEBF0FBECDBF8C0161E074
:100D700087E00E94E62161E087E00E9422226CED7C
:100D800075E080E090E00E94462160E087E00E94EC
:100D9000222281E0809391038EE993E00E942B1838
:100DA0000E9415216B017C01AE014F5F5F4F68E629
:100DB00070E0C80102960E9469090E941521DC01B9
:100DC000CB018C199D09AE09BF0988389341A10553
:100DD000B105B0F461E070E080E090E00E9446214F
:100DE00020E030E0AE014F5F5F4FBE016D5E7F4F90
:100DF00081E893E00E94790F8823F9F28B8901C082
:100E000080E063960FB6F894DEBF0FBECDBFDF91D2
:100E1000CF911F910F91FF90EF90DF90CF900895A9
:100E200027E431E0FC013183208327E531E033837F
:100E3000228360938E03089581E08093910361E0A3
:100E400087E00E94222260EE7EE280E090E00E9435
:100E5000462160E087E00E94222268EE73E080E095
:100E600090E00E94462181E090E0089581E0809327
:100E7000910361E087E00E94222260ED77E080E04C
:100E800090E00E94462160E087E00E94222281E0FB
:100E900090E008950F931F93CF93DF93CDB7DEB704
:100EA00069970FB6F894DEBF0FBECDBF20918C03BB
:100EB00030E02130310539F482E080938C0341E049
:100EC0006BEC70E026C12230310589F520E030E07E
:100ED00040E050E0BE01675E7F4F81E893E00E94F2
:100EE000790F882309F419C1898D882309F476C004
:100EF000E0918703F0918803309709F400C1808165
:100F0000882309F4FCC040E068EB70E081E893E0DE
:100F10000E94B70F83E080938C03609187037091E8
:100F2000880341E081E893E00E94D80FF6C02330A7
:100F30003105D1F420E030E040E050E0BE01675ED2
:100F40007F4F81E893E00E94790F882309F4E5C080
:100F5000898D882309F442C084E080938C0381E862
:100F600093E00E9484103DC02430310509F042C056
:100F70008C010E5F1F4FAE01435F5F4F6CEA70E064
:100F8000C8010E946909AE014F5F5F4F60EA70E0DF
:100F9000C8010E9469099E012F5F3F4FAE01435F68
:100FA0005F4FBE01675E7F4F81E893E00E94790F3B
:100FB000882309F4B2C0898D882339F085E08093B5
:100FC0008C0341E065E970E0A4C081E893E00E94F1
:100FD0008410693873418105910518F063E070E071
:100FE00089C040ED57E060E070E081E893E00E9446
:100FF000CF108CC025303105E9F420E030E040E02E
:1010000050E0BE01675E7F4F81E893E00E94790F58
:10101000882309F482C040ED57E060E070E081E889
:1010200093E00E94CF1086E080938C0341E06BE850
:1010300070E06FC026303105A9F420E030E040E0D8
:1010400050E0BE01675E7F4F81E893E00E94790F18
:10105000882309F462C087E080938C0341E061E853
:1010600070E057C027303105A9F420E030E040E0BF
:1010700050E0BE01675E7F4F81E893E00E94790FE8
:10108000882309F44AC088E080938C0341E06DE72F
:1010900070E03FC028303105A1F420E030E040E0AE
:1010A00050E0BE01675E7F4F81E893E00E94790FB8
:1010B000882399F189E080938C0341E063E770E035
:1010C00028C02930310549F520E030E040E050E00B
:1010D000BE01675E7F4F81E893E00E94790F88230D
:1010E000E1F0898D882309F479CF83E0809391031F
:1010F00061E070E081E893E00E94A50F0EC084E0FB
:1011000080938C0381E893E00E94841041E061ECBD
:1011100070E081E893E00E94B70F69960FB6F894EB
:10112000DEBF0FBECDBFDF91CF911F910F9108950C
:101130000F931F93CF93DF938C01C1E8D3E07F839C
:101140006E83BC016E5F7F4F42E0CE010E947A1039
:1011500082E0888BC8010E944A078A8590E0DF916F
:10116000CF911F910F910895CF92DF92EF92FF924E
:101170001F93CF93DF931F92CDB7DEB76C017B0136
:10118000122F61E087E049830E94E6214981C60170
:10119000442319F00E941C0702C00E94360740E851
:1011A00055E260E070E08EE993E00E943718B701E5
:1011B000C6010E94980811110BC0809191030F90F5
:1011C000DF91CF911F91FF90EF90DF90CF90089526
:1011D000D601ED91FC910084F185E02DC6010995C1
:1011E000892B59F768EE73E080E090E00E94462179
:1011F000EFCFCF93DF931F92CDB7DEB780918C03F3
:10120000813019F0823061F024C041E06BEC70E075
:1012100081E893E00E94B70F82E080938C0319C0AD
:1012200020E030E040E050E0BE016F5F7F4F81E89A
:1012300093E00E94790F882361F08981882319F057
:1012400061E070E002C063E070E081E893E00E943A
:10125000A50F0F90DF91CF91089520918D0322303B
:1012600019F0233019F008950C944A070C94F908EA
:1012700002970C942D090F931F93CF93DF938C014A
:10128000C1E8D3E01A8681E08B87B8016E5F7F4F9B
:1012900043E0CE010E947A10C8010E94F9088A85B5
:1012A00090E0DF91CF911F910F9108950F9300E08F
:1012B00020E040E060E089E693E00E94801E0F910C
:1012C000089581E893E00E94621080918B0390E082
:1012D0000895FB01DA0184918D9331968111FBCF42
:1012E000089580E090E0089580E090E00895CF9226
:1012F000DF92EF92FF92DB011296CD90DD90ED90A0
:10130000FC901597FC01C186D286E386F486109284
:101310008803109287030190F081E02D0484F58505
:10132000E02D60E070E0FF90EF90DF90CF900994A7
:101330000895089580E090E00895089581E09091E7
:101340009103953009F080E00895809191038530F4
:1013500021F483E893E00C94F51E089580919103A5
:10136000853021F483E893E00C94F71E0895809172
:101370009103853031F064E070E081E893E00E94F1
:10138000A50F8091B2039091B103891B8F7719F05B
:1013900061E070E002C064E070E081E893E00E94E8
:1013A000A50F80918B0390E00895EF92FF921F9319
:1013B000CF93DF93CDB7DEB72C970FB6F894DEBF8F
:1013C0000FBECDBF03967C01AE014F5F5F4F6EEC49
:1013D00070E00E94690911E080919103853009F065
:1013E00010E020E040E0BE016F5F7F4F81EB93E0B3
:1013F0000E949302182341F084E080939103B70187
:1014000081E893E00E945A0F812F2C960FB6F89432
:10141000DEBF0FBECDBFDF91CF911F91FF90EF9048
:10142000089503970C94D50960E070E081EB93E098
:101430000E940F0290E0089503960C946109CF93E7
:10144000DF93EC0182E891E0998388838CEA91E054
:101450009C838B83CE0107960E94761ED093230334
:10146000C0932203DF91CF9108950F9300E020E015
:1014700040E060E08FE693E00E94801E0F910895A7
:101480000F931F93CF93DF93CDB7DEB72D970FB692
:10149000F894DEBF0FBECDBF8C0190918C039330CA
:1014A00009F473C028F4913049F0923001F1C7C0BB
:1014B000943009F485C09B3029F0C1C040E064E05D
:1014C00071E029C040E068EF70E081E893E00E949D
:1014D000B70FE0918703F0918803309709F4A3C018
:1014E000808180538A3008F49EC061E39DC020E073
:1014F00030E040E050E0BE01635F7F4F81E893E061
:101500000E94790F882309F49AC08D858823D1F130
:1015100040E06DEE70E081E893E00E94B70F6BE56C
:1015200071E083E893E00E94F51E6091870370915B
:1015300088036115710529F083E893E00E94F51E88
:1015400006C063E873E0C80107960E94341E62E299
:1015500083E893E00E94F71E6CE283E893E00E9428
:10156000F71E6091890370918A034AE050E083E896
:1015700093E00E94B21F6DE083E893E00E94F71EA3
:1015800083E01BC063E070E049C020E030E040E051
:1015900050E0BE01635F7F4F81E893E00E94790FC6
:1015A000882309F44CC08D85882361F363E671E0DC
:1015B0008DEA94E00E94021F84E080938C033FC078
:1015C000AE014F5F5F4F60EE70E0C80103960E946E
:1015D000690920E030E0AE014F5F5F4FBE01635FFD
:1015E0007F4F81E893E00E94790F882341F16FE6F5
:1015F00071E08DEA94E00E94021F8D85882311F22C
:1016000085E08093910321E041E0BE016F5F7F4F51
:1016100081EB93E00E94930261E070E081E893E047
:101620000E94A50F0CC060E383E893E00E94F71EC0
:101630006DE083E893E00E94F71E82E0BECF2D9616
:101640000FB6F894DEBF0FBECDBFDF91CF911F91D3
:101650000F910895EF92FF920F931F93CF93DF9313
:101660008C01C1E8D3E059874887FC01368725877C
:101670007F836E837C01F3E0EF0EF11C4EE0B70137
:10168000CE010E947A10B701CE010E943E0FC80120
:101690000E94400A8A8590E0DF91CF911F910F91BF
:1016A000FF90EF900895CF93DF93EC0123964FE0E6
:1016B000BE0181E893E00E947A1068EE73E080E05A
:1016C00090E00E9446216AE771E083E893E00E947F
:1016D000F51E68EE73E080E090E00E94462141E054
:1016E00065ED70E081E893E00E94B70F84E080939D
:1016F000910381EB93E00E9426028EE993E00E9421
:10170000E11764E670E080E090E00E94462161E02D
:1017100070E081E893E00E94A50F9091B203809160
:10172000B103981B9F7729F7BE0181E893E00E94DF
:101730005A0F80918B0390E0DF91CF910895CF9362
:101740008091B1039091B2038150891B8F77A9F0EA
:1017500081EB93E00E94FD01C82F9091B10380912D
:10176000B2039150981B9F77943621F48EE993E051
:101770000E94E1178C2F90E002C080E090E0CF91B2
:1017800008958091B2039091B103891B8F7741F046
:1017900081EB93E00E9426028EE993E00C94E1171E
:1017A00061E070E081E893E00C94A50F20918D0337
:1017B0002E3039F0233139F0213039F46093B203FF
:1017C00008950C94400A0C94C10B089503970C944F
:1017D000D60BCF93DF93EC01BC016D5F7F4F43E1EC
:1017E00081E893E00E947A10CE01DF91CF910C94B2
:1017F000C10BCF93DF93CDB7DEB72D970FB6F8941B
:10180000DEBF0FBECDBF20918C0330E0213031050B
:10181000B1F440E06DEA71E081E893E00E94B70F17
:101820004AE050E060E070E083E893E00E94B21F7D
:101830006DE083E893E00E94F71E82E01CC0223036
:101840003105F9F420E030E040E050E0BE01635F94
:101850007F4F81E893E00E94790F882309F474C1D7
:101860008D85882359F041E062EA71E081E893E0D8
:101870000E94B70F83E080938C0366C163E070E041
:101880005FC123303105D1F420E030E040E050E08A
:10189000BE01635F7F4F81E893E00E94790F882348
:1018A00009F452C18D85882349F341E066E971E06E
:1018B00081E893E00E94B70F84E0DDCF243031054A
:1018C000D1F420E030E040E050E0BE01635F7F4FA4
:1018D00081E893E00E94790F882309F435C18D8552
:1018E000882361F241E069E871E081E893E00E94B9
:1018F000B70F85E0C0CF2530310579F520E030E025
:1019000040E050E0BE01635F7F4F81E893E00E94BA
:10191000790F882309F418C18D85882309F4AECF87
:1019200040E065E771E081E893E00E94B70F6091C5
:1019300087037091880383E893E00E94F51E68EFA7
:1019400071E083E893E00E94F51E63EA72E083E8A9
:1019500093E00E94F51E86E08ECF26303105D9F443
:1019600020E030E040E050E0BE01635F7F4F81E85F
:1019700093E00E94790F882309F4E6C08D858823BF
:1019800009F47CCF41E068E671E081E893E00E94D1
:10199000B70F88E070CF28303105D9F420E030E06F
:1019A00040E050E0BE01635F7F4F81E893E00E941A
:1019B000790F882309F4C8C08D85882309F45ECF88
:1019C00041E06DE571E081E893E00E94B70F89E0A6
:1019D00052CF29303105D9F420E030E040E050E02A
:1019E000BE01635F7F4F81E893E00E94790F8823F7
:1019F00009F4AAC08D85882309F440CF41E060E551
:101A000071E081E893E00E94B70F8AE034CF2A307A
:101A10003105D9F420E030E040E050E0BE01635FE2
:101A20007F4F81E893E00E94790F882309F48CC0EE
:101A30008D85882309F422CF41E068E471E081E8D4
:101A400093E00E94B70F8BE016CF2B303105D9F40D
:101A500020E030E040E050E0BE01635F7F4F81E86E
:101A600093E00E94790F882309F46EC08D85882346
:101A700009F404CF41E06BE371E081E893E00E9458
:101A8000B70F8CE0F8CE2C303105D9F420E030E0EF
:101A900040E050E0BE01635F7F4F81E893E00E9429
:101AA000790F882309F450C08D85882309F4E6CE88
:101AB00041E062E371E081E893E00E94B70F8DE0BE
:101AC000DACE2D303105D1F420E030E040E050E0B6
:101AD000BE01635F7F4F81E893E00E94790F882306
:101AE00099F18D85882309F4C9CE41E069E271E05E
:101AF00081E893E00E94B70F8EE0BDCE2E30310515
:101B000019F5AE014F5F5F4F67E271E002960E94E8
:101B1000690920E030E0AE014F5F5F4FBE01635FB7
:101B20007F4F81E893E00E94790F882369F08D85CB
:101B3000882309F4A3CE84E08093910361E070E0F0
:101B400081E893E00E94A50F2D960FB6F894DEBFB2
:101B50000FBECDBFDF91CF910895EF92FF920F930B
:101B6000CF93DF93EC015D834C833F832E8370938F
:101B70008803609387037C0182E0E80EF11C4CE04F
:101B8000B70181E893E00E947A1082E0809391038C
:101B9000CE010E94F90B011108C080919103DF91E1
:101BA000CF910F91FF90EF900895C7010E946109B6
:101BB000892B99F764E670E080E090E00E9446216E
:101BC000F4CF0F9301E00E94AD0D0F9108950F9394
:101BD0001F93CF93DF93E9018A019B0143EA52E00F
:101BE000BA0181EB93E00E94D302811102C01882F6
:101BF00002C081E0888381E0DF91CF911F910F9136
:101C000008950F9300E020E040E060E085E793E076
:101C10000E94801E0F9108951F93CF93DF93CDB73D
:101C2000DEB72D970FB6F894DEBF0FBECDBF109173
:101C30008C031230D9F01330C1F1113009F058C0C3
:101C400040E06DEA71E081E893E00E94B70F4AE05E
:101C500050E060E070E083E893E00E94B21F6DE026
:101C600083E893E00E94F71E82E015C0AE014F5F4B
:101C70005F4F6CE171E002960E946909BE016F5FDF
:101C80007F4F81EB93E00E948102882389F18D854B
:101C9000882321F083E080938C032AC063E070E006
:101CA00081E893E00E94A50F23C020E030E040E0EF
:101CB00050E0BE01635F7F4F81E893E00E94790F9F
:101CC000882371F08D85882329F01093910361E0BA
:101CD00070E002C063E070E081E893E00E94A50F2D
:101CE00081EB93E00E9426028EE993E00E94E117C7
:101CF0002D960FB6F894DEBF0FBECDBFDF91CF910A
:101D00001F910895FF920F931F93CF93DF938C0140
:101D1000F62EEC0122964DE0BE0181E893E00E9490
:101D20007A1082E080939103C8010E940C0EF1109A
:101D300008C080919103DF91CF911F910F91FF9087
:101D40000895CE010E946109892B99F761E070E046
:101D500080E090E00E944621F4CF61E00C94820E76
:101D6000CF93DF931F92CDB7DEB720918C03213044
:101D700019F0223061F02EC041E061E171E081E8AC
:101D800093E00E94B70F82E080938C0323C04091C0
:101D9000890350918A0360918703709188039E01A3
:101DA0002F5F3F4F0E94E70D882361F089818823D0
:101DB00019F061E070E002C063E070E081E893E058
:101DC0000E94A50F81EB93E00E9426028EE993E02A
:101DD0000E94E1170F90DF91CF91089520918D031C
:101DE0002D3031F0253131F02C3031F40C94F90BD9
:101DF0000C940C0E0C94B00E089502970C94EE0EF9
:101E00000F9300E020E040E060E08BE793E00E9469
:101E1000801E0F910895CF92DF92FF920F931F9330
:101E2000CF93DF931F92CDB7DEB78C016B01F60124
:101E3000F490FF2059F0D801ED91FC910280F381DC
:101E4000E02D6F2DC801498309954981BFEFCB1A59
:101E5000DB0AF110ECCF442331F06BEF71E0C801E5
:101E600002960E94F51E81E090E00F90DF91CF91E5
:101E70001F910F91FF90DF90CF900895FC01818911
:101E80009289892B59F083899489892B51F085890E
:101E90009689892B71F422E030E005C020E030E023
:101EA00002C021E030E0220F331FE20FF31F728BDC
:101EB000618B0895FC01818992898617970769F0E3
:101EC000838994898617970759F08589968986179B
:101ED000970771F422E030E005C020E030E002C056
:101EE00021E030E0220F331FE20FF31F128A118A24
:101EF0000895EF92FF920F931F93CF93DF937B018F
:101F000089014115510531F4232B21F4409106013B
:101F100050910701EC01E096BA01CE010E948102C6
:101F2000F7018083811109C00115110531F0B80155
:101F3000CE010E948102F701808381E0DF91CF9181
:101F40001F910F91FF90EF900895FC016130710592
:101F500021F080918D03823039F0628781E084879F
:101F6000108E178A8387089510929103F6CF0F93EE
:101F70001F93CF93DF9300D01F92CDB7DEB78C01B4
:101F8000C0964B8369837A830E942602D801ED9123
:101F9000FC910480F581E02D4B8169817A81C80133
:101FA0000F900F900F90DF91CF911F910F91099497
:101FB0000F931F93CF93DF9300D01F92CDB7DEB75F
:101FC0008C01C0964B8369837A830E9426020E5F40
:101FD0001F4F69817A81C8010E94F51E4B814423FD
:101FE00061F06BEF71E0C8010F900F900F90DF91DF
:101FF000CF911F910F910C94F51E0F900F900F90A1
:10200000DF91CF911F910F910895AF92BF92CF9220
:10201000DF92FF920F931F93CF93DF931F92CDB761
:10202000DEB78C01F62E5C0181E1A80EB11C6801BF
:10203000A7E1CA0ED11CF501819191915F01009732
:1020400049F1DC01ED91FC910280F381E02D6F2DCF
:10205000498309954981AC14BD0419F0882359F3CB
:102060001DC081111BC0F8018789908D0097B1F0C8
:10207000DC01ED91FC910190F081E02D6F2D0F902E
:10208000DF91CF911F910F91FF90DF90CF90BF9084
:10209000AF900994EC15FD0571F6E5CF0F90DF9137
:1020A000CF911F910F91FF90DF90CF90BF90AF9095
:1020B0000895FC012585222319F066874787089536
:1020C0000C940510CF93DF93EC018D85882379F074
:1020D0009E858F85981759F0CE01C0960E947B038C
:1020E0004F856E85CE010E9405101E861F86DF91EA
:1020F000CF910895FC01708F678B128681E08387F2
:102100004487168617860895CF92DF92EF92FF924A
:102110000F931F93CF93DF93EC010E9415218B0146
:102120009C01498D5A8D6B8D7C8D68017901C41A93
:10213000D50AE60AF70AC701B601098F1A8F2B8F55
:102140003C8FDF91CF911F910F91FF90EF90DF9027
:10215000CF900895CF93DF93EC011D821C8286EC13
:1021600091E09983888380ED91E09B838A83CE01FF
:102170004D960E942219DEA3CDA31E861F8681E004
:102180008A871B868C87CE010E9484101A8A198A3E
:102190001C8A1B8A1E8A1D8ADF91CF910895CF92D7
:1021A000DF92EF92FF92CF93DF9300D000D0CDB7B4
:1021B000DEB7C12CD12C7601C416D506E606F7068B
:1021C00091F088EE93E049835A836B837C830E946D
:1021D00030188FEFC81AD80AE80AF80A7C816B8198
:1021E0005A814981E9CF0F900F900F900F90DF91A6
:1021F000CF91FF90EF90DF90CF90089581E893E02A
:102200000C94AA100F931F93CF93DF931F92CDB717
:10221000DEB78C01FC018585882329F0862F698330
:102220000E9462036981C8014D960F90DF91CF91A2
:102230001F910F910C94E91702970C9402110F93C0
:1022400000E020E040E060E085E394E00E94801E32
:102250000F9108950F9300E020E040E060E08BE3F1
:1022600094E00E94801E0F9108950F9300E020E0FB
:1022700040E060E081E494E00E94801E0F910895A8
:102280000F9300E020E040E060E087E494E00E94EB
:10229000801E0F91089580E090E0089580E090E026
:1022A000089581E090919103953009F080E00895C0
:1022B00081E090919103953009F080E0089580E0ED
:1022C00090E0089502960C94610928ED31E0FC013C
:1022D000318320832EEE31E03383228390935403A5
:1022E0008093530308950F931F93CF93DF9300D0F0
:1022F00000D0CDB7DEB78C0190918C03923099F06D
:1023000060F4913009F079C041E068EE71E081E855
:1023100093E00E94B70F82E034C09330C1F1943053
:1023200009F44EC06AC08DE089838AE08A831B82EB
:1023300020E030E0AE014F5F5F4FBE016C5F7F4F2A
:1023400081E893E00E94790F882309F456C08C81BC
:102350008823D1F040E066ED71E081E893E00E94CF
:10236000B70F6091890370918A034AE050E083E8D7
:1023700093E00E94B21F6DE083E893E00E94F71E95
:1023800083E080938C0339C063E070E032C020E0CA
:1023900030E040E050E0BE016C5F7F4F81E893E0A9
:1023A0000E94790F882349F18C81882369F341E0E9
:1023B0006AEC71E081E893E00E94B70F84E0E1CF1E
:1023C00020E030E040E050E0BE016C5F7F4F81E8EC
:1023D00093E00E94790F882381F08C818823A1F2F9
:1023E000B8016E5F7F4F81E893E00E943E0F61E08D
:1023F00070E081E893E00E94A50F0F900F900F907E
:102400000F90DF91CF911F910F91089520918D032F
:10241000213019F0243121F008956093B20308951A
:102420000C94731102970C9406120F931F93CF9381
:10243000DF938C01C1E8D3E079876887BC016E5FC8
:102440007F4F44E1CE010E947A10C8010E947311AF
:102450008A8590E0DF91CF911F910F9108950F939E
:102460001F93CF93DF93CDB7DEB72F970FB6F894B6
:10247000DEBF0FBECDBF8C010E5F1F4FAE014F5FA1
:102480005F4F61EC71E0C8010E946909BE016F5F96
:102490007F4F81EB93E00E948102882319F084E052
:1024A00080939103AE014F5F5F4F67EB71E0C8010E
:1024B0000E946909BE016F5F7F4F81EB93E00E942C
:1024C0008102182F882381F021E041E0BE016F5F77
:1024D0007F4F81EB93E00E9493028EE993E00E948C
:1024E000E11785E080939103812F2F960FB6F89422
:1024F000DEBF0FBECDBFDF91CF911F910F91089529
:1025000002970C942F120F931F939B018A0148EF9F
:1025100051E062EF71E081EB93E00E94D30281E031
:1025200090E01F910F910895FC012681211109C0AF
:1025300021E0268341E064EA72E081EB93E00E94AF
:10254000930260E070E081EB93E00E940F0290E064
:10255000089502960C94610927E132E0FC01318371
:1025600020832FE232E033832283909360038093B1
:102570005F030895CF93DF931F92CDB7DEB78091AD
:102580008C03813019F08230D1F032C082E0809328
:102590008C0340E063E172E081E893E00E94B70FB2
:1025A000609187037091880383E893E00E94F51E91
:1025B0006AEF71E083E893E00E94F51E19C020E005
:1025C00030E04DEF51E0BE016F5F7F4F81E893E057
:1025D0000E94790F882361F08981882319F061E0D6
:1025E00070E002C063E070E081E893E00E94A50F14
:1025F0000F90DF91CF910895CF93DF9320919103B6
:102600002350223018F082E090E013C0EC01709368
:10261000880360938703BC016E5F7F4F44E081E8CD
:1026200093E00E947A10CE010E94BA1280918B032F
:1026300090E0DF91CF9108950F931F93CF93DF9395
:10264000EC018B019091B1038091B2039150981BE2
:102650009F7781E0953008F080E08F8321E041E0B2
:102660006FEF71E081EB93E00E949302811103C050
:10267000F801108203C081E0F801808381EB93E0D0
:102680000E942E039D838C8366E072E081EB93E0D1
:102690000E9481028887198681E0DF91CF911F9186
:1026A0000F910895CF93DF931F92CDB7DEB720919E
:1026B0008C03213019F0223061F01EC041E06CEF34
:1026C00071E081E893E00E94B70F82E080938C0371
:1026D00013C0BE016F5F7F4F0E941C13882361F0FF
:1026E0008981811103C064E070E002C061E070E0A4
:1026F00081E893E00E94A50F0F90DF91CF9108959C
:10270000CF93DF93EC011E82BC016E5F7F4F46E0EA
:1027100081E893E00E947A10CE010E9452138091CA
:102720008B0390E0DF91CF9108950F931F93CF9388
:10273000DF931F92CDB7DEB78C0190918C0391305F
:1027400019F09230D9F033C082E080938C0340E0DE
:1027500063EF71E081E893E00E94B70FF8016481B4
:1027600075814AE050E083E893E00E94B21F6BEF6E
:1027700071E083E893E00E94F51E19C020E030E08C
:1027800040E050E0BE016F5F7F4F81E893E00E9420
:10279000790F882361F08981882319F061E070E066
:1027A00002C063E070E081E893E00E94A50F0F9003
:1027B000DF91CF911F910F910895CF93DF931F92D7
:1027C000CDB7DEB780918C03813019F0823081F073
:1027D00028C082E080938C036AE181E893E00E9444
:1027E00002116BEF71E083E893E00E94F51E19C0BF
:1027F00020E030E040E050E0BE016F5F7F4F81E8B5
:1028000093E00E94790F882361F08981882319F071
:1028100061E070E002C063E070E081E893E00E9454
:10282000A50F0F90DF91CF91089520918D03253052
:1028300081F028F4213041F0243049F00895263009
:1028400051F0273051F008956093B20308950C942D
:10285000BA120C94DD130C9452130C949513029736
:102860000C941514CF93DF93EC01BC016E5F7F4F86
:1028700045E081E893E00E947A10CE010E94DD13CA
:10288000E881F9810088F189E02DCE010995892B35
:1028900039F464E670E080E090E00E944621F0CFD9
:1028A00080918B0390E0DF91CF91089581E893E0D0
:1028B0000C9402110F931F93CF93DF93EC018E8141
:1028C00081110AC081E08E8321E041E064EA72E078
:1028D00081EB93E00E94930281EB93E00E94FD0163
:1028E000082F8985882341F0198666E072E081EB24
:1028F00093E00E94810288878885811128C08F819A
:10290000882341F18091B1039091B2038150891BDA
:102910008F7710E08F3709F041C081EB93E00E9480
:1029200026021F8281E08987BE016E5F7F4F40E0F3
:1029300081E893E00E947A108EE993E00E94E1170B
:102940006AE070E080E090E00E94462127C066E0E7
:1029500072E002C06CE072E081EB93E00E948102C1
:10296000811119C081EB93E00E942602BE016E5FC7
:102970007F4F40E081E893E00E947A108EE993E077
:102980000E94E1176AE070E080E090E00E9446213A
:1029900080E090E004C0802F90E001C0C801DF918A
:1029A000CF911F910F9108950F931F93CF93DF93B2
:1029B0008C01C5E0D0E081EB93E00E9426028EE915
:1029C00093E00E94E1176AE070E080E090E00E94EE
:1029D0004621219781F7B8016E5F7F4F47E081E87C
:1029E00093E00E947A10C801DF91CF911F910F915F
:1029F0000C949513CF93DF93EC01E881F981068461
:102A0000F785E02D09958E81DF91CF910895FC0126
:102A100066830895BC016E5F7F4F81E893E00C945C
:102A20003E0F0F931F93CF93DF93EC018B0140E098
:102A300060E572E081E893E00E94B70FB80183E897
:102A400093E00E94F51E63E372E083E893E00E9446
:102A5000F51EE881F9810484F585E02D61E0CE0161
:102A6000099581E090E0DF91CF911F910F9108953A
:102A7000CF92DF92FF920F931F93CF93DF93CDB747
:102A8000DEB72F970FB6F894DEBF0FBECDBF8C0117
:102A90006C0182E0C80ED11CAE014F5F5F4F6BE34B
:102AA00072E0C6010E946909BE016F5F7F4F81EB32
:102AB00093E00E948102F82E882341F0D801ED9125
:102AC000FC910484F585E02D62E019C0AE014F5FF2
:102AD0005F4F64E372E0C6010E946909BE016F5F47
:102AE0007F4F81EB93E00E948102F82E882371F0E2
:102AF000D801ED91FC910484F585E02D63E0C801D7
:102B0000099581EB93E00E9426024BC0AE014F5F16
:102B10005F4F69E272E0C6010E946909BE016F5F02
:102B20007F4F81EB93E00E948102F82E811112C049
:102B3000AE014F5F5F4F64E272E0C6010E94690917
:102B4000BE016F5F7F4F81EB93E00E948102F82E00
:102B5000882341F0D801ED91FC910484F585E02DA6
:102B600060E0CDCFAE014F5F5F4F6DE172E0C60117
:102B70000E946909BE016F5F7F4F81EB93E00E9465
:102B80008102F82E882369F081EB93E00E942602EF
:102B9000D801ED91FC910484F585E02D62E0C80137
:102BA00009958F2D2F960FB6F894DEBF0FBECDBFBF
:102BB000DF91CF911F910F91FF90DF90CF900895FB
:102BC00002970C94381502960C946109FC018DE46F
:102BD00092E09183808385E692E0938382831582DD
:102BE0001482F0936203E093610308950F931F939F
:102BF0009B018A0148EF51E066E372E081EB93E0CC
:102C00000E94D30281EB93E00E94260281E01F9193
:102C10000F91089520918C03213019F0223061F03A
:102C2000089541E068E472E081E893E00E94B70F04
:102C300082E080938C030895FC014481558160916A
:102C40008703709188030E94F615882331F061E0B4
:102C500070E081E893E00C94A50F08950F931F9303
:102C6000CF93DF938C01C1E8D3E07F836E83FC01B7
:102C7000558344831A8681E08B87B8016E5F7F4F4E
:102C80004BE0CE010E947A10C8010E940A168A8584
:102C900090E0DF91CF911F910F9108950F931F93B3
:102CA000CF93DF931F92CDB7DEB78C0180918C0359
:102CB000813019F0823061F02DC041E064E472E0AF
:102CC00081E893E00E94B70F82E080938C0322C0DA
:102CD00020E030E040E050E0BE016F5F7F4F81E8D0
:102CE00093E00E94790F8823A9F0D801ED91FC911F
:102CF0000484F585E02D63E0C80109958981882366
:102D000019F061E070E002C063E070E081E893E0F8
:102D10000E94A50F0F90DF91CF911F910F91089501
:102D20000F931F93CF93DF938C01C1E8D3E01A86F2
:102D300081E08B87B8016E5F7F4F49E0CE010E9432
:102D40007A10C8010E944E168A8590E0DF91CF91DB
:102D50001F910F9108950F931F93CF93DF931F92AD
:102D6000CDB7DEB78C0180918C03813019F08230B1
:102D700061F02DC041E060E472E081E893E00E94E0
:102D8000B70F82E080938C0322C020E030E040E067
:102D900050E0BE016F5F7F4F81E893E00E94790FA2
:102DA0008823A9F0D801ED91FC910484F585E02DEC
:102DB00060E0C80109958981882319F061E070E01D
:102DC00002C063E070E081E893E00E94A50F0F90DD
:102DD000DF91CF911F910F9108950F931F93CF9380
:102DE000DF938C01C1E8D3E01A8681E08B87B801BC
:102DF0006E5F7F4F4AE0CE010E947A10C8010E94A8
:102E0000AB168A8590E0DF91CF911F910F910895C5
:102E100020918D032A3031F02B3031F0293031F4FC
:102E20000C944E160C94AB160C940A160895029747
:102E30000C94081780915F0390916003DC01ED9181
:102E4000FC910280F381E02D099581E090E00895E6
:102E500080915F0390916003DC01ED91FC91068409
:102E6000F785E02D099480915F0390916003DC0168
:102E7000ED91FC910084F185E02D0994FC01138211
:102E8000128288EE93E0A0E0B0E084839583A6836D
:102E9000B7838DE692E091838083662319F0848561
:102EA00081608487089580915F0390916003DC01C5
:102EB000ED91FC910088F189E02D099480915F03E8
:102EC00090916003DC01ED91FC910484F585E02D87
:102ED0000994CF92DF92EF92FF92CF93DF93FC01A0
:102EE000248520FF1EC0EC010E9415216B017C018E
:102EF0000E941521DC01CB018C199D09AE09BF0987
:102F000080319742A105B105A0F4CE010E9453176C
:102F1000892B79F464E670E080E090E00E9446211D
:102F2000E7CFDF91CF91FF90EF90DF90CF900C949F
:102F30005317CE010E94531721E030E0019711F0A2
:102F400020E030E0C901DF91CF91FF90EF90DF905A
:102F5000CF900895CF93DF93EC0180915F03909120
:102F60006003DC01ED91FC910284F385E02D09956D
:102F700061E070E0CE01DF91CF910C946917CF939F
:102F8000DF93EC0180915F0390916003DC01ED9190
:102F9000FC910680F781E02D0995BC01CE01DF91FF
:102FA000CF910C9469170F9300E020E040E060E0BF
:102FB00087E594E00E94801E8DE494E00F910C94CC
:102FC000AC12DC01ED91FC910280F381E02D61E116
:102FD0000994CF93DF93FC0120893189232B51F190
:102FE000EC010190F081E02D0280F381E02D613150
:102FF00049F467E70995E881F9810280F381E02DC2
:103000006EEE14C0633149F467E70995E881F981F0
:103010000280F381E02D6CEE09C0673741F4099519
:10302000E881F9810280F381E02D68E8CE01DF912B
:10303000CF91099480E090E0DF91CF910895DC0179
:103040001696ED91FC911797908115968C9180952D
:1030500089238083089510925E0410925D04089580
:1030600020E001972FEF8F3F9207D9F70895CF9275
:10307000DF92EF92FF92CF93DF93EC01198A188AC7
:103080001F861E861D861C8684E592E020E030E0C7
:10309000FC01C590D590E590F490C416D506E606DF
:1030A000F70619F54CE0429FC001439F900D112493
:1030B000FC01E85AFD4F259134913B872A87FC019A
:1030C000E65AFD4F259134913D872C87FC01E45A47
:1030D000FD4F259134913F872E87FC01E25AFD4F29
:1030E00085919491998B888B09C02F5F3F4F0C96E7
:1030F0002C30310509F0CCCF1B861A868E859F8532
:10310000892B71F0809168008460809368008091C1
:103110006D00846080936D00888999890E943018C1
:10312000D0935E04C0935D04DF91CF91FF90EF9048
:10313000DF90CF900895611102C00C941F18DC013C
:103140001696ED91FC911797208115968C91822B04
:1031500080830895DF92EF92FF920F931F93CF9396
:10316000DF93EC01D62EEFB6F8940E941F188889E1
:10317000998905960E94301808E010E0FF24F39426
:103180008F2D8D2129F061E0CE010E949B1803C094
:10319000CE010E941F18888999890E943018FF0C5F
:1031A0000150110969F761E0CE010E949B18EFBE42
:1031B000888999890E94301881E090E0DF91CF9151
:1031C0001F910F91FF90EF90DF900895CF93DF93C1
:1031D000EC0161E083E00E94E62161E083E00E946F
:1031E0002222EBEFF2E0E491ED83EFE0F3E0E491F3
:1031F000F0E0EE0FFF1FE65DFC4F859194919F83F9
:103200008E83DF91CF910895CF93DF93EC0160E03F
:1032100082E00E94E62161E082E00E942222EAEF41
:10322000F2E0E491EA83EEE0F3E0E491F0E0EE0F07
:10323000FF1FE05EFC4F859194919C838B83DF910F
:10324000CF910895CF93DF93EC018DE792E09983BE
:1032500088831B861A861D861C861F861E86198AF1
:10326000188ABE01CE0143960E94DE01CE010E9463
:10327000E618CE01DF91CF910C940419FC01DB011B
:103280008C9192898F3F29F491FF09C082E09827A1
:1032900003C0873721F49160928B80E0089590FFFE
:1032A00010C08E3E11F481E107C08C3E11F483E121
:1032B00003C0883811F487E78C93928981E08927CD
:1032C000828B81E008957F928F929F92AF92BF92FE
:1032D000CF92DF92EF92FF920F931F93CF93DF93E2
:1032E0001F92CDB7DEB72F933F934F935F936F93AA
:1032F0007F93AF93BF931982DC011396ED91FC91FC
:103300001497308112962C91232309F08BC08C01E5
:10331000B12C772473946C01B3E1CB0ED11CF8016E
:103320008489828593850E943018D80153969C9198
:10333000539754968C919150981B9F77EE24E39469
:10334000963010F0E12C05C0B11003C0C8010E94F6
:103350001F1898E0892E912CFF24F394F80184859E
:1033600095850E943018D8011396ED91FC91149721
:10337000908112968C9198238981992311F08F293D
:1033800003C09F2D909589238983EE2069F0B110A9
:103390000BC08F2D837129F061E0C8010E949B183A
:1033A00003C0C8010E941F18FF0CB1E08B1A9108DE
:1033B000A9F6EE2009F459C0B11009C0F8018485BE
:1033C00095850E94301861E0C8010E949B18F801A1
:1033D00082898260828BBB24B394BE016F5F7F4F72
:1033E000C8010E943E19811134C082E3882E912CBD
:1033F00081E090E00E943018D8011396ED91FC9185
:103400001497908112968C91892309F488CFB1E0AA
:103410008B1A910869F7E11030C089818A3069F10F
:10342000803259F1BF91AF917F916F915F914F9130
:103430003F912F910F90DF91CF911F910F91FF90AE
:10344000EF90DF90CF90BF90AF909F908F907F9044
:1034500008956981C6010E94E401772009F4C5CF6F
:10346000D8015496AC90712CC0CFD8011E968D9186
:103470009C911F970E943018B0CFF80180859185EC
:10348000009781F24489DC01ED91FC910190F0817B
:10349000E02D6A2D0995C6CF80915D0490915E0460
:1034A000009711F00C94631908951F920F920FB6B4
:1034B0000F9211242F933F934F935F936F937F93BA
:1034C0008F939F93AF93BF93EF93FF930E944C1AF8
:1034D000FF91EF91BF91AF919F918F917F916F91EC
:1034E0005F914F913F912F910F900FBE0F901F90C2
:1034F00018951F920F920FB60F9211242F933F939E
:103500004F935F936F937F938F939F93AF93BF93EB
:10351000EF93FF930E944C1AFF91EF91BF91AF91EF
:103520009F918F917F916F915F914F913F912F91DB
:103530000F900FBE0F901F9018951F920F920FB60D
:103540000F9211242F933F934F935F936F937F9329
:103550008F939F93AF93BF93EF93FF930E944C1A67
:10356000FF91EF91BF91AF919F918F917F916F915B
:103570005F914F913F912F910F900FBE0F901F9031
:1035800018950F9300E020E040E060E086E694E0CC
:103590000E94801E8FE594E00F910C94E6150F9326
:1035A00000E020E040E060E087EA94E00E94801EB6
:1035B00060E083EA94E00E94100761E085E994E00E
:1035C0000E940604EDE8F4E084EB91E091838083AF
:1035D0008EEB91E09383828361E080E894E00F9129
:1035E0000C943E17CF93DF9300D000D000D0CDB71E
:1035F000DEB763E872E0CE0101960E94C0226091BE
:103600001D0170911E01CE0101960E94032368E9FD
:1036100072E0CE0101960E94032364E670E0CE01C1
:1036200001960E94252361EA72E0CE0101960E9474
:10363000032340910801509109016AE071E085E996
:1036400094E00E945F04892B59F166EA72E085E9F3
:1036500094E00E94F51E6D817E814AE050E085E98C
:1036600094E00E94CD1F6BEF71E085E994E00E9429
:10367000F51E6DEF71E085E994E00E94C12088237A
:10368000A9F0BE016F5F7F4F85E994E00E94E71EBD
:103690006AE185E994E00E941E056BEF71E002C0CB
:1036A00062EB72E085E994E00E94F51E85E994E002
:1036B0000E94E805CE0101960E94522226960FB67E
:1036C000F894DEBF0FBECDBFDF91CF9108950F9369
:1036D00061E08DE00E94E62160E08DE00E94222200
:1036E00026E040E855E260E070E08DEA94E00E9458
:1036F000401D61E08CE00E94E62160E08CE00E94C9
:10370000222221E040E060E070E083EA94E00E9441
:10371000B408833099F420911F0130912001409129
:10372000210150912201609123017091240101E057
:103730008DE894E00E94AD0D843039F068EE73E0BE
:1037400080E090E00E944621DCCF61E08DE00E94A5
:10375000E62161E08DE00F910C9422221F93CF931C
:10376000DF93EC0165EA72E00E94C02280E894E0F9
:103770000E94BF17892B99F144E150E06CE674E098
:1037800080E894E00E945E176CE674E08DEA94E0B5
:103790000E94021F80E894E00E943317839721F46F
:1037A00080E894E00E94AA1780E894E00E9428171D
:1037B000182F882351F0612F8DEA94E00E94F91CA4
:1037C000612FCE010E941223EFCF6BEF71E08DEAE3
:1037D00094E00E94021F80E894E00E94AA17CE01A4
:1037E000DF91CF911F9108950F931F93CF93DF9394
:1037F000CDB7DEB762970FB6F894DEBF0FBECDBF70
:103800000E94F21ACE010D960E94AE1B89899A89F8
:10381000892B09F45AC06FEB72E0CE0101960E9429
:10382000C0226CE674E0CE0107960E94C022BE0161
:103830006F5F7F4FCE0107960E9472238C01CE01ED
:1038400007960E945222CE0101960E94522217FD35
:103850003CC069EC72E0CE0101960E94C022BE011C
:103860006F5F7F4FCE010D960E9472238C01CE01B7
:1038700001960E94522217FD0AC060E08CE00E946F
:1038800022226CEC72E08DEA94E00E94021F65ED4A
:1038900072E0CE0101960E94C022BE016F5F7F4F91
:1038A000CE010D960E9472238C01CE0101960E94DA
:1038B000522217FD0AC061E08CE00E94222269EDCD
:1038C00072E08DEA94E00E94021F60ED77E080E0F4
:1038D00090E00E944621CE010D960E9452226296EF
:1038E0000FB6F894DEBF0FBECDBFDF91CF911F9111
:1038F0000F910895FC01918D228D892F90E0805CBD
:103900009F4F821B91098F7399270895FC01918D18
:10391000828D981731F0828DE80FF11D858D90E032
:1039200008958FEF9FEF0895FC01918D828D981778
:1039300061F0828DDF01A80FB11D5D968C91928D93
:103940009F5F9F73928F90E008958FEF9FEF089590
:103950008DEF9DE1892B49F080E090E0892B29F0E3
:103960000E94FD1D81110C9400000895FC01848DBE
:10397000DF01A80FB11DA35ABF4F2C91848D90E099
:1039800001968F739927848FA689B7892C93A08974
:10399000B1898C9180648C93938D848D981306C02B
:1039A0000288F389E02D80818F7D80830895CF93F5
:1039B000DF93EC01888D8823C9F0EA89FB89808137
:1039C00085FD05C0A889B9898C9186FD0FC00FB609
:1039D00007FCF5CF808185FFF2CFA889B9898C914A
:1039E00085FFEDCFCE010E94B61CE7CFDF91CF91CE
:1039F0000895EF92FF920F931F93CF93DF93EC0103
:103A000081E0888F9B8D8C8D981305C0E889F9899A
:103A1000808185FD24C0F62E0B8D10E00F5F1F4FB7
:103A20000F731127E02E8C8DE8120CC00FB607FC27
:103A3000FACFE889F989808185FFF5CFCE010E9410
:103A4000B61CF1CF8B8DFE01E80FF11DE35AFF4F3D
:103A5000F0820B8FEA89FB898081806207C0EE8942
:103A6000FF896083E889F98980818064808381E0AF
:103A700090E0DF91CF911F910F91FF90EF9008950B
:103A8000CF92DF92EF92FF921F93CF93DF93EC01DF
:103A90006A017B01122FE889F98982E08083411550
:103AA000514E61057105B1F060E079E08DE390E081
:103AB000A70196010E947723DA01C9010197A109A4
:103AC000B109B695A79597958795AC01411580E109
:103AD0005807A8F0E889F989108260E874E88EE157
:103AE00090E0A70196010E947723BA01A9014150F5
:103AF0005109610971097695679557954795EC8548
:103B0000FD855083EE85FF854083188EEC89FD8905
:103B10001083EA89FB89808180618083EA89FB893F
:103B2000808188608083EA89FB89808180688083C6
:103B3000EA89FB8980818F7D8083DF91CF911F91FE
:103B4000FF90EF90DF90CF9008951F920F920FB6E5
:103B50000F9211242F938F939F93EF93FF93E091F4
:103B6000BD04F091BE048081E091C304F091C404CF
:103B700082FD12C090818091C6048F5F8F73209167
:103B8000C704821751F0E091C604F0E0E355FB4F03
:103B9000958F8093C60401C08081FF91EF919F9122
:103BA0008F912F910F900FBE0F901F9018951F921D
:103BB0000F920FB60F9211242F933F934F935F9361
:103BC0006F937F938F939F93AF93BF93EF93FF93E5
:103BD0008DEA94E00E94B61CFF91EF91BF91AF91E6
:103BE0009F918F917F916F915F914F913F912F9115
:103BF0000F900FBE0F901F9018958DEA94E00E94D1
:103C00007A1C21E0892B09F420E0822F0895EDEA47
:103C1000F4E01382128288EE93E0A0E0B0E08483A7
:103C20009583A683B78381E093E09183808385ECBD
:103C300090E09587848784EC90E09787868780EC76
:103C400090E0918B808B81EC90E0938B828B82EC67
:103C500090E0958B848B86EC90E0978B868B118E11
:103C6000128E138E148E08958F929F92AF92BF92F0
:103C7000CF92DF92EF92FF920F931F93CF93DF9338
:103C80007C018B016C0182E0C80ED11C4701E5E08C
:103C90008E0E911CC0E0D0E0F60161916F014AE008
:103CA00050E0C8010E94C61F5C016EE2C8010E947C
:103CB000F71E8A0D9B1DC80FD91FC814D90461F7C0
:103CC0004AE050E0F7016581C8010E94C61F8C0FD1
:103CD0009D1FDF91CF911F910F91FF90EF90DF908B
:103CE000CF90BF90AF909F908F90089521E133E0E7
:103CF000FC0131832083128213821482158208957D
:103D00000F93FC0181E193E091838083628343837D
:103D1000248305830F910895EAE4F5E081E193E0BF
:103D200091838083128213821482158208950895EC
:103D30000E9482210E94971E0E94671BC8EADCE154
:103D40000E94F41B2097E1F30E94A81CF9CFCF92A8
:103D5000DF92EF92FF920F931F93CF93DF936C014B
:103D60007A018B01C0E0D0E0CE15DF0589F0D801E3
:103D70006D918D01D601ED91FC910190F081E02DC6
:103D8000C6010995892B11F47E0102C02196ECCF62
:103D9000C701DF91CF911F910F91FF90EF90DF90BE
:103DA000CF9008956115710579F0FB010190002015
:103DB000E9F73197AF01461B570BDC01ED91FC9100
:103DC0000280F381E02D099480E090E00895DC0109
:103DD000ED91FC91DB0114964D915C9115976D91DD
:103DE0007C910280F381E02D09940C94D21EDC01B9
:103DF000ED91FC910190F081E02D099463EA72E06D
:103E00000C94D21E0F931F93CF93DF93EC010E946B
:103E1000D21E8C01CE010E94FE1E800F911FDF91E9
:103E2000CF911F910F9108958F929F92AF92BF9261
:103E3000CF92DF92EF92FF920F931F93CF93DF9376
:103E4000CDB7DEB7A1970FB6F894DEBF0FBECDBFDA
:103E50007C01D42EC52EDB0119A2223008F42AE001
:103E60008E010F5D1F4F822E912CA12CB12C6D2D38
:103E70007C2DCD01A50194010E947723D22EC32E63
:103E8000DA01015011096A3071058105910510F4BC
:103E9000605D01C0695CF8016083232B242B252B16
:103EA00031F7B801C7010E94D21EA1960FB6F8944F
:103EB000DEBF0FBECDBFDF91CF911F910F91FF905D
:103EC000EF90DF90CF90BF90AF909F908F9008952C
:103ED000CF92DF92EF92FF920F931F93CF93DF93D6
:103EE000EC016A017B012115310579F4E881F98142
:103EF0000190F081E02D642FDF91CF911F910F9100
:103F0000FF90EF90DF90CF9009942A303105E9F4CB
:103F100077FF1AC06DE20E94F71E8C0144275527D7
:103F2000BA014C195D096E097F092AE0CE010E9491
:103F3000141F800F911FDF91CF911F910F91FF9060
:103F4000EF90DF90CF9008952AE0B701A601CE014F
:103F5000DF91CF911F910F91FF90EF90DF90CF9065
:103F60000C94141F9A01AB01770F660B770B0C941E
:103F7000681F2115310541F4DC01ED91FC910190A0
:103F8000F081E02D642F09940C94141F9A01462FA0
:103F900050E060E070E00C94B91F9A01AB0160E062
:103FA00070E00C94B91F0F931F93CF93DF93EC0134
:103FB0000E941521688779878A879B87E881F98124
:103FC0000680F781E02DCE01099597FF17C00E946A
:103FD0001521088519852A853B85DC01CB01801BCD
:103FE000910BA20BB30B0C811D812E813F81801799
:103FF0009107A207B30710F38FEF9FEFDF91CF91E7
:104000001F910F9108954F925F926F927F928F92BE
:104010009F92AF92BF92CF92DF92EF92FF920F9357
:104020001F93CF93DF938C01EB0186E0849F4001C7
:10403000859F900C1124860E971EFB01E815F9054B
:10404000F8F482819381892B11F13696F7CF608144
:10405000718144815581DB01A40FB51F2C9130E0A3
:104060008217930711F54F5F5F4F55834483228179
:1040700033814217530759F03696E815F90538F39E
:10408000C8010E94D31F97FD44C0FE01F6CFEC1B70
:10409000FD0BF595E7952BEA3AEAE29FC001E39F15
:1040A000900DF29F900D112436C04115510521F35A
:1040B000C480D58096012150310935832483DB01EA
:1040C000A20FB31FAC91B0E08A179B07F9F421153A
:1040D0003105C9F05B017A01E21AF30AE60EF71E18
:1040E000412C512CD5016D905D01D7017D907D0152
:1040F000671006C0BFEF4B1A5B0A4216530690F3D7
:1041000042165306A9F6D582C482B6CF232B81F678
:10411000B3CF8FEF9FEFDF91CF911F910F91FF9062
:10412000EF90DF90CF90BF90AF909F908F907F9057
:104130006F905F904F900895CF93DF9300D000D0A1
:1041400000D0CDB7DEB7FE01319626E0DF011D922B
:104150002A95E9F77A8369835C834B8341E050E0D9
:10416000BF010E94032021E0892B09F020E0822F6B
:1041700026960FB6F894DEBF0FBECDBFDF91CF916C
:104180000895FB0101900020E9F73197AF01461B2C
:10419000570B0C949C201F920F920FB60F92112474
:1041A0002F933F938F939F93AF93BF93809151052C
:1041B00090915205A0915305B0915405309150054E
:1041C00023E0230F2D3720F40196A11DB11D05C05A
:1041D00026E8230F0296A11DB11D20935005809360
:1041E000510590935205A0935305B09354058091C7
:1041F000550590915605A0915705B0915805019627
:10420000A11DB11D8093550590935605A0935705A8
:10421000B0935805BF91AF919F918F913F912F918E
:104220000F900FBE0F901F9018952FB7F8946091C4
:1042300051057091520580915305909154052FBFFF
:1042400008953FB7F8948091550590915605A09137
:104250005705B091580526B5A89B05C02F3F19F00A
:104260000196A11DB11D3FBFBA2FA92F982F8827F6
:10427000820F911DA11DB11DBC01CD0142E0660F51
:10428000771F881F991F4A95D1F708958F929F92A3
:10429000AF92BF92CF92DF92EF92FF926B017C01BF
:1042A0000E9421214B015C01C114D104E104F104FD
:1042B00001F10E9476230E942121DC01CB018819A3
:1042C0009909AA09BB09883E9340A105B10560F38D
:1042D00021E0C21AD108E108F10888EE880E83E0D7
:1042E000981EA11CB11CC114D104E104F10419F7FA
:1042F000DBCFFF90EF90DF90CF90BF90AF909F907B
:104300008F900895789484B5826084BD84B581606F
:1043100084BD85B5826085BD85B5816085BDEEE6CD
:10432000F0E0808181608083E1E8F0E010828081AC
:1043300082608083808181608083E0E8F0E080811A
:1043400081608083E1EBF0E0808184608083E0EB3A
:10435000F0E0808181608083EAE7F0E08081846022
:10436000808380818260808380818160808380817E
:10437000806880831092C1000895833081F028F412
:10438000813099F08230A1F008958730A9F088300B
:10439000B9F08430D1F4809180008F7D03C080918A
:1043A00080008F7780938000089584B58F7702C056
:1043B00084B58F7D84BD08958091B0008F7703C050
:1043C0008091B0008F7D8093B0000895CF93DF93EC
:1043D00090E0FC01E850FD4F2491FC01E45FFC4FAC
:1043E0008491882361F190E0880F991FFC01EC5CB7
:1043F000FC4FC591D491FC01E65DFC4FA591B491B1
:10440000611109C09FB7F894888120958223888321
:10441000EC912E230BC0623061F49FB7F894388181
:10442000822F809583238883EC912E2B2C939FBF22
:1044300006C08FB7F894E8812E2B28838FBFDF91B9
:10444000CF9108951F93CF93DF93282F30E0F90188
:10445000EC51FD4F8491F901E850FD4FD491F901E1
:10446000E45FFC4FC491CC23C9F0162F81110E9448
:10447000BD21EC2FF0E0EE0FFF1FE65DFC4FA59194
:10448000B4918FB7F894111105C09C91ED2FE09570
:10449000E92302C0EC91ED2BEC938FBFDF91CF911C
:1044A0001F910895FC01808191810C943424CF9355
:1044B000DF93EC0188819981009711F00E943424E8
:1044C000198218821D821C821B821A82DF91CF9171
:1044D00008950F931F93CF93DF93EC018B016F5FD0
:1044E0007F4F888199810E94CC24009731F0998375
:1044F00088831B830A8381E001C080E0DF91CF9134
:104500001F910F910895CF93DF93EC0188819981DA
:10451000892B29F08A819B818617970760F4CE0149
:104520000E946922882341F08C819D81892B19F496
:10453000E881F981108281E0DF91CF910895EF92B7
:10454000FF920F931F93CF93DF93EC017B018A01BE
:10455000BA010E948322811104C0CE010E94572219
:1045600007C01D830C83B701888199810E949F2514
:10457000CE01DF91CF911F910F91FF90EF900895A1
:10458000FC0111821082138212821582148261153D
:10459000710551F0FB0101900020E9F73197AF015F
:1045A000461B570B0C949F220895EF92FF920F9396
:1045B0001F93CF93DF93FC01248135816115710531
:1045C00011F480E019C041155105A9F07B01EC01FF
:1045D0008A01020F131FB8010E948322882389F3E6
:1045E000288139818C819D81B701820F931F0E94A0
:1045F0009F251D830C8381E0DF91CF911F910F9147
:10460000FF90EF9008956115710551F0FB01019045
:104610000020E9F73197AF01461B570B0C94D522C8
:1046200080E00895CF93DF9300D0CDB7DEB76983E4
:104630001A8241E050E0BE016F5F7F4F0E94D52299
:104640000F900F90DF91CF910895EF92FF920F930B
:104650001F93CF93DF93CDB7DEB728970FB6F894AB
:10466000DEBF0FBECDBF7C01CB014AE08E010F5FE4
:104670001F4FB8010E94C025F80101900020E9F702
:104680003197AF01401B510BB801C7010E94D522E1
:1046900028960FB6F894DEBF0FBECDBFDF91CF9145
:1046A0001F910F91FF90EF900895CF93DF93FC013E
:1046B000248135814217530780F4FB01DC01CD9141
:1046C000DC9160817181CE01840F951F0E94A62527
:1046D000009719F08C1B9D0B02C08FEF9FEFDF91AD
:1046E000CF91089540E050E00C9455230895A1E245
:1046F0001A2EAA1BBB1BFD010DC0AA1FBB1FEE1F5C
:10470000FF1FA217B307E407F50720F0A21BB30BA6
:10471000E40BF50B661F771F881F991F1A9469F722
:1047200060957095809590959B01AC01BD01CF017E
:104730000895EE0FFF1F0590F491E02D0994CF939B
:10474000DF938230910510F482E090E0E0915B0508
:10475000F0915C0520E030E0C0E0D0E0309711F14E
:104760004081518148175907C0F04817590761F433
:1047700082819381209719F09B838A832BC0909329
:104780005C0580935B0526C02115310519F04217A1
:10479000530718F49A01BE01DF01EF010280F38193
:1047A000E02DDCCF2115310509F1281B390B243010
:1047B000310590F412968D919C91139761157105B6
:1047C00021F0FB019383828304C090935C05809366
:1047D0005B05FD01329644C0FD01E20FF31F81939A
:1047E0009193225031092D933C933AC02091590561
:1047F00030915A05232B41F420910201309103019D
:1048000030935A0520935905209100013091010100
:104810002115310541F42DB73EB740910401509167
:104820000501241B350BE0915905F0915A05E2175B
:10483000F307A0F42E1B3F0B2817390778F0AC01C3
:104840004E5F5F4F2417350748F04E0F5F1F5093A0
:104850005A05409359058193919302C0E0E0F0E03E
:10486000CF01DF91CF9108950F931F93CF93DF93E3
:10487000009709F48CC0FC013297138212820091D8
:104880005B0510915C050115110581F420813181D2
:10489000820F931F2091590530915A052817390727
:1048A00079F5F0935A05E093590571C0D80140E0BD
:1048B00050E0AE17BF0750F412962D913C9113971C
:1048C000AD012115310509F1D901F3CF9D01DA01BF
:1048D0003383228360817181860F971F821793072C
:1048E00069F4EC0128813981260F371F2E5F3F4F75
:1048F000318320838A819B8193838283452B29F492
:10490000F0935C05E0935B0542C01396FC93EE9335
:104910001297ED01499159919E01240F351FE2171D
:10492000F30771F480819181840F951F029611968F
:104930009C938E938281938113969C938E9312976E
:10494000E0E0F0E0D80112968D919C9113970097CA
:1049500019F0F8018C01F6CF8D919C9198012E5F92
:104960003F4F820F931F2091590530915A05281708
:10497000390769F4309729F410925C0510925B05B1
:1049800002C01382128210935A0500935905DF91D9
:10499000CF911F910F910895A0E0B0E0E2EDF4E215
:1049A0000C94F925EC01009721F4CB010E949F2380
:1049B000B8C0FC01E60FF71F9C0122503109E21735
:1049C000F30708F4ACC0D9010D911C91119706179B
:1049D0001707B0F00530110508F49FC0C80104970F
:1049E0008617970708F499C002501109061B170B88
:1049F000019311936D937C93CF010E9434248DC059
:104A00005B01A01AB10A4C01800E911EA0915B05BA
:104A1000B0915C0540E050E0E12CF12C109709F4D6
:104A20004AC0A815B905D1F56D907C901197630126
:104A300082E0C80ED11CCA14DB0480F1A3014A191C
:104A40005B096A0182E0C80ED11C1296BC901297D5
:104A50001396AC91B5E0CB16D10440F0B282A3839B
:104A600051834083D9016D937C930AC00E5F1F4F21
:104A7000C301800F911FF90191838083EB2DFA2FE1
:104A8000E114F10431F0D7011396FC93EE931297E1
:104A900044C0F0935C05E0935B053FC08D919C9111
:104AA00011974817590708F4AC017D0112960D9033
:104AB000BC91A02DB3CF8091590590915A058815CE
:104AC0009905E1F446175707C8F4809100019091C9
:104AD0000101009741F48DB79EB7409104015091B8
:104AE0000501841B950BE817F907C8F4F0935A05E4
:104AF000E0935905F901718360830FC0CB010E94D7
:104B00009F237C01009759F0A801BE010E949625C1
:104B1000CE010E943424C70104C0CE0102C080E04F
:104B200090E0CDB7DEB7EEE00C941526FB01DC017A
:104B300002C001900D9241505040D8F70895FB01FA
:104B4000DC0101900D920020E1F70895FB015191E5
:104B50005523A9F0BF01DC014D9145174111E1F743
:104B600059F4CD010190002049F04D9140154111BB
:104B7000C9F3FB014111EFCF81E090E00197089567
:104B8000BB274A3031F4992322F4BDE290958195F8
:104B90009F4F0C94CC25BB27FB015527AA27880FD4
:104BA000991FAA1FA41710F0A41B83955051B9F7A1
:104BB000A05DAA3308F0A95DA193009779F7B11120
:104BC000B1931192CB010C94E525DC01FC01672F18
:104BD00071917723E1F7329704C07C916D937083D4
:104BE0006291AE17BF07C8F308952F923F924F927C
:104BF0005F926F927F928F929F92AF92BF92CF926D
:104C0000DF92EF92FF920F931F93CF93DF93CDB775
:104C1000DEB7CA1BDB0B0FB6F894DEBF0FBECDBFED
:104C200009942A88398848885F846E847D848C84BE
:104C30009B84AA84B984C884DF80EE80FD800C81C7
:104C40001B81AA81B981CE0FD11D0FB6F894DEBFAA
:0C4C50000FBECDBFED010895F894FFCF1A
:104C5C0000005D052000100250006170692E746820
:104C6C00696E67737065616B2E636F6D00E302A5EF
:104C7C0002A502F4022000000000001E0538059E6B
:104C8C0005C205D505E8059D045F04DD030806BED5
:104C9C0003D00300000000B4083B09A6068B06886D
:104CAC00062D09FEFF0000380986062254435022C7
:104CBC002C22004F4B205265636569766564004376
:104CCC006F6E6E656374204F4B002B2B2B00000016
:104CDC000000710974091C0A9E099A099D092A0B86
:104CEC0077099809AE09A5099909B7099F0BE90B32
:104CFC00140A530BD509D60BFDFF0000E60B110A65
:104D0C0000000000E10DAD0EEE0EFEFF0000FD0EEA
:104D1C00860600000000591002110B0FFEFF000068
:104D2C001C11A71E0000000051114B114E116211F5
:104D3C0015125F11581106122F12FEFF00001212ED
:104D4C00801252454144222C2200220D003E002BA1
:104D5C00434D474C3A000D0A0D0A2B000D0A0D0A63
:104D6C004F4B0000000000FC1256143214801394B8
:104D7C0012D41483125A14A9121514FEFF00002F1A
:104D8C001486063B0D002B434C43433A20312C3107
:104D9C002C342C302C302C2200000000000A151171
:104DAC00159016ED162E16FA140715E3150817387C
:104DBC0015FEFF00001717E015000000001A17A7DA
:104DCC001EBF1728173317AA1700000000E117AAF7
:104DDC0018E917474554202F7570646174653F615D
:104DEC0070695F6B65793D00266669656C64313D61
:104DFC00000D0A0D0A0041542B43495053454E44B3
:104E0C003D0041542B434950434C4F53450D003208
:104E1C003637373636323533006F6E0052454C41DB
:104E2C0059204F4E006F66660052454C4159204F39
:104E3C00464600564B4B5654313449325535373370
:104E4C0042505A00696E7465726E65740000000001
:104E5C0000F91CA71E7A1C941C861CD71C00000091
:104E6C0000341E6E616E00696E66006F7666002EF1
:024E7C00000034
:00000001FF
