:100000000C94B4010C94DC010C94DC010C94551A92
:100010000C94791A0C949D1A0C94DC010C94DC015C
:100020000C94DC010C94DC010C94DC010C94DC01DC
:100030000C94DC010C94DC010C94DC010C94DC01CC
:100040000C94CE200C94DC010C94A81D0C94DA1DA9
:100050000C94DC010C94DC010C94DC010C94DC01AC
:100060000C94DC010C94DC01504F57455220444F56
:10007000574E0041542B434F4C503D310041545A90
:100080000041542B434C49503D310041542B434DCA
:1000900047463D310041542B4946433D312C310008
:1000A0002B43475245473A20302C35002B434752CB
:1000B00045473A20302C310041542B4350494E3DA6
:1000C0000041542B43475245473F00415400434CA5
:1000D0004F5345440041542B5149434C4F53450025
:1000E000434F4E4E454354204F4B0D0A0041542B75
:1000F00051494F50454E3D0041542B5149444E53B8
:1001000049503D0041542B43495053544152543DB2
:100110000041542B51494C4F434950002B504450FF
:10012000204445414354002E0041542B434946533B
:10013000520041542B43494943520041542B4349F7
:10014000505354415455530041542B43535454007D
:1001500041542B4349505354415455530041542B5F
:1001600043474154543D310041542B43474143548C
:100170003D312C310041542B434744434F4E543DB5
:10018000312C224950222C220041542B43495053F8
:1001900054415455530041542B4349504D55583DFB
:1001A000300041542B434950534855540041542B7F
:1001B00043474154543D00434F4E4E4543540D0A6E
:1001C00000434C4F5345440D0A0041542B514953B1
:1001D00045525645520041542B51494C504F5254B0
:1001E0003D22544350222C0041542B51494C4F4343
:1001F00049500041542B434D47443D0041542B434B
:100200004D474C3D2252454320554E5245414422D4
:100210002C310041542B434D47533D22002B434C7E
:1002200049503A0042555359004E4F2043415252D3
:10023000494552002B434F4C503A0052494E47001B
:10024000415448004154410041542B434C43430026
:100250004154440000C201000100110011000C00D3
:1002600000E100000A0025002500210000960000A2
:100270001900390039003600127A00001F004600CC
:10028000460044008070000022004D004D004A00EE
:10029000004B000036007500750072004038000009
:1002A0004A009C009C009900802500007200EC0030
:1002B000EC00E900C0120000E900DA01DA01D70120
:1002C00060090000D701B603B603B303B004000011
:1002D000B3036E076E076B072C010000DC0EC11D17
:1002E000C11DBE1D0000000800020100000304073C
:1002F00000000000000000000102040810204080FF
:10030000010204081020010204081020040404045F
:1003100004040404020202020202030303030303AF
:100320000000000023002600290000000000250036
:1003300028002B0000000000240027002A00B3033F
:100340003A06480653065E066D067B065609350AD0
:10035000010E000FFE101F112A1135114011D31785
:10036000C11ACF1A0A1E8F1E11241FBECFEFD8E06C
:10037000DEBFCDBF13E0A0E0B1E0E2E6FCE402C0E6
:1003800005900D92AA31B107D9F725E0AAE1B3E0B3
:1003900001C01D92A535B207E1F711E0C4EBD1E031
:1003A00004C02197FE010E949C23CF39D107C9F7D1
:1003B0000E949B1E0C942F260C940000FC011082BE
:1003C0001182738362830895FC0191819F5F9F77FF
:1003D0008081981779F08181DF01A80FB11D1496F3
:1003E0006C93DF01A90FB11D14961C92918381E0DB
:1003F00090E0089580E090E00895FC019081818173
:10040000981759F08081DF01A80FB11D14968C91C7
:1004100090819F5F9F779083089580E00895FC010D
:1004200091818081891718F48181908103C0818135
:1004300090818058891B90E0681779072CF480819F
:10044000E80FF11D8481089580E00895FC01218169
:1004500020830895BF92CF92DF92EF92FF920F9385
:100460001F93CF93DF93DC01EB018881882389F10F
:1004700030E0E0E0F0E009C0311130C051E09F5FB2
:100480009F77511130C04F5F4F77421779F1942F0A
:100490006D01C90ED11CE6015C816B01CE0EDF1E21
:1004A000E60188815813E8CF311101C0B92E319689
:1004B0006B01CE0EDF1EE601888181110CC0011593
:1004C000110511F0F801B082E114F10411F0E70117
:1004D000988381E00CC051E031E0D1CF50E030E0B2
:1004E000E0E0F0E0CCCF9213D3CFCDCF80E0DF912E
:1004F000CF911F910F91FF90EF90DF90CF90BF9021
:100500000895EF92FF920F931F93FC012181408188
:10051000E12CF12C00E010E00E942A021F910F91C3
:10052000FF90EF900895AF92BF92CF92DF92EF923B
:10053000FF920F931F93CF93DF9300D0CDB7DEB719
:100540006C01B42EA22EFC0121814081CE010196C6
:100550007C018E010E5F1F4FC6010E942A02882374
:10056000A9F0AA2051F0BB2021F099819F5F9F77CD
:1005700001C09A81F601908309C0BB2021F09981C6
:100580009F5F9F7701C09A81F60191830F900F9032
:10059000DF91CF911F910F91FF90EF90DF90CF905F
:1005A000BF90AF9008958F929F92AF92BF92CF92DB
:1005B000DF92EF92FF920F931F93CF93DF9300D0C0
:1005C000CDB7DEB76C014A015901FC0121814081A0
:1005D000CE0102967C0100E010E0C6010E942A02D2
:1005E000811102C080E02BC08A8141E0480F4A831C
:1005F000F6012181E12CF12C8E010F5F1F4FB40118
:10060000C6010E942A02882369F39A8149814F77A3
:1006100050E0F501BF016A197B09292F30E024174A
:10062000350749F0D601A20FB31F14962C912193E0
:100630009F5F9F77EFCFF501E60FF71F10820F90B6
:100640000F90DF91CF911F910F91FF90EF90DF906E
:10065000CF90BF90AF909F908F900895FC019081B4
:100660009F5F60E040E020E030E07AE08181981711
:1006700011F1DF01A90FB11D14965C91503219F4EC
:10068000411105C015C05D3211F4442379F080EDAD
:10069000850F8A3080F4729FD001739FB00D1124B2
:1006A0009D01250F311D2053310901C061E041E05A
:1006B0009F5F9F77DBCF662319F031952195310934
:1006C000C9010895CF93682F80EE860F8F3570F0A3
:1006D000C62F65E285EA94E00E94FA1E4AE050E0E7
:1006E0006C2F85EA94E00E94C91F65E285EA94E0D8
:1006F000CF910C94FA1E0F931F93CF93DF938C012D
:10070000FC01C081D18185EA94E00E94011F4AE08A
:1007100050E06C2F85EA94E00E94C91F65E271E009
:1007200085EA94E00E94F81E4AE050E06D2F85EAC9
:1007300094E00E94C91F6EE385EA94E00E94FA1ECD
:10074000CD1749F0F801EC0FF11D84810E9462037E
:10075000CF5FCF77F5CF85EA94E0DF91CF911F91FE
:100760000F910C94011F0F9300E020E040E060E047
:100770008CE193E00E94831E0F910895DC011C968A
:100780006C916F3F59F080911A0390911B03DC012B
:10079000ED91FC910680F781E02D099480E00895A9
:1007A000DC01ED91FC910488F589E02D099591E03B
:1007B000813009F090E0892F0895CF92DF92EF9277
:1007C000FF920F931F93CF93DF937C016A018B01FC
:1007D000C0E0D0E0CC15DD0579F0D701ED91FC91BA
:1007E0000680F781E02DC7010995882329F0F801DB
:1007F00081938F012196EECFCE01DF91CF911F9192
:100800000F91FF90EF90DF90CF900895FC0113823D
:10081000128288EE93E0A0E0B0E084839583A68303
:10082000B7838BE291E091838083611102C081E004
:1008300001C085E085878FEF8487089580911A0332
:1008400090911B03DC01ED91FC910480F581E02D7A
:100850000994CF92DF92EF92FF92CF93DF93EC0156
:100860000E9418216B017C010E941821AB01BC0180
:100870004C195D096E097F094031574261057105C8
:1008800050F0CE010E941E0421E030E0019779F083
:1008900020E030E00CC0CE010E941E04892B89F7B5
:1008A00064E670E080E090E00E944921DDCFC9015C
:1008B000DF91CF91FF90EF90DF90CF900895EF926E
:1008C000FF920F931F93CF93DF93A0911A03B091E0
:1008D0001B03109749F17A018B01EC01ED91FC911A
:1008E00011970084F185E02D6FEF7FEFCD01099521
:1008F0009C018C8780911A0390911B03DC01ED9180
:10090000FC9133270484F585E02DA701B8010995F2
:100910002D8522FF0BC0CE01DF91CF911F910F914A
:10092000FF90EF900C94290482E090E0DF91CF914A
:100930001F910F91FF90EF900895CF92DF92EF9269
:10094000FF920F931F93CF93DF9300D000D000D07E
:10095000CDB7DEB7A0911A03B0911B031097C1F178
:100960007A016B018C01ED91FC9111970084F18566
:10097000E02D6FEF7FEFCD0109959C01D8011C960A
:100980008C9380911A0390911B03DC01ED91FC91F3
:100990000684F785E02D49E053E05A834983D60168
:1009A00012964D915D916D917C9115974B835C836F
:1009B0006D837E833327A701BE016F5F7F4F09954B
:1009C000F801258522FF06C0C8010E94290402C043
:1009D00082E090E026960FB6F894DEBF0FBECDBF42
:1009E000DF91CF911F910F91FF90EF90DF90CF900B
:1009F00008951F93CF93DF93EC01162F9D85892FC8
:100A000082608D87A0911A03B0911B03ED91FC9138
:100A100011974C8550E0692F61700088F189E02DB5
:100A2000CD010995112331F0CE01DF91CF911F91B6
:100A30000C942904DF91CF911F910895CF93C62F75
:100A4000DC011D962C9121FD03C061E00E94F90498
:100A500080911A0390911B03DC01ED91FC910288B7
:100A6000F389E02D6C2F099581E090E0CF910895F6
:100A7000CF92DF92EF92FF920F931F93CF93DF936A
:100A80001F92CDB7DEB7F62E8A01DC011D962C91A0
:100A900021FD05C061E079830E94F9047981CF2CA2
:100AA000D72E7601E00EF11ECE14DF0479F080918E
:100AB0001A0390911B03F60161916F01DC01ED9126
:100AC000FC910288F389E02D0995EECFC8010F90C3
:100AD000DF91CF911F910F91FF90EF90DF90CF901A
:100AE00008950F931F93CF93DF931F92CDB7DEB777
:100AF0008C01DC011D969C911D9782E089271D9633
:100B00008C9380911A0390911B03DC01ED91FC9171
:100B10000688F789E02D698309956981662341F08C
:100B2000C8010F90DF91CF911F910F910C94290470
:100B30000F90DF91CF911F910F910895CF93DF9385
:100B4000EC018D8581FF04C061E0CE010E9471053A
:100B500080911A0390911B03DC01ED91FC914C856F
:100B600050E06D856170008CF18DE02D09952D852B
:100B700022FF05C0CE01DF91CF910C942904DF91B3
:100B8000CF910895DC011D962C9121FF03C061E0F7
:100B90000E94710580911A0390911B03DC01ED9175
:100BA000FC91028CF38DE02D0994DC011D962C91B3
:100BB00021FF03C061E00E94710580911A039091AA
:100BC0001B03DC01ED91FC91068CF78DE02D09945F
:100BD000CF93DF93EC018D8581FF04C061E0CE01EE
:100BE0000E94710580911A0390911B03DC01ED9125
:100BF000FC91048CF58DE02D09958D8582FF05C053
:100C0000CE01DF91CF910C942904DF91CF9108950B
:100C1000CF93DF93EC018D8581FF04C061E0CE01AD
:100C20000E94710580911A0390911B03DC01ED91E4
:100C3000FC914C8550E06D85617000A0F1A1E02D24
:100C4000099580911A0390911B03DC01ED91FC91B1
:100C50006C8570E00284F385E02D09951C868D85F6
:100C600082FF05C0CE01DF91CF910C942904DF9162
:100C7000CF9108950F9300E020E040E060E081E331
:100C800093E00E94831E82E293E00F910C941F0A6E
:100C90000F9300E020E040E060E087E393E00E94F3
:100CA000831E0F9108950F9300E020E040E060E084
:100CB0008DE393E00E94831E0F9108950F9300E04F
:100CC00020E040E060E085E493E00E94831E109203
:100CD0004403109243030F9108950F9300E020E026
:100CE00040E060E081E593E00E94831E8DE493E0A4
:100CF0000F910C9465110F9300E020E040E060E05C
:100D00008BE593E00E94831E0F91089580E0089583
:100D100002960C94610961E087E00E94E92161E09C
:100D200087E00E94252264E873E080E090E00E9462
:100D3000492160E087E00E94252286E080938903B4
:100D400086E993E00E942B1881E00895CF92DF920C
:100D5000EF92FF920F931F93CF93DF93CDB7DEB740
:100D600063970FB6F894DEBF0FBECDBF8C0161E074
:100D700087E00E94E92161E087E00E9425226CED76
:100D800075E080E090E00E94492160E087E00E94E9
:100D9000252281E08093890386E993E00E942B1845
:100DA0000E9418216B017C01AE014F5F5F4F68E626
:100DB00070E0C80102960E9469090E941821DC01B6
:100DC000CB018C199D09AE09BF0988389341A10553
:100DD000B105B0F461E070E080E090E00E9449214C
:100DE00020E030E0AE014F5F5F4FBE016D5E7F4F90
:100DF00089E793E00E94790F8823F9F28B8901C07B
:100E000080E063960FB6F894DEBF0FBECDBFDF91D2
:100E1000CF911F910F91FF90EF90DF90CF900895A9
:100E200027E431E0FC013183208327E531E033837F
:100E3000228360938603089581E08093890361E0B3
:100E400087E00E94252260EE7EE280E090E00E9432
:100E5000492160E087E00E94252268EE73E080E08F
:100E600090E00E94492181E090E0089581E0809324
:100E7000890361E087E00E94252260ED77E080E051
:100E800090E00E94492160E087E00E94252281E0F5
:100E900090E008950F931F93CF93DF93CDB7DEB704
:100EA00069970FB6F894DEBF0FBECDBF20918403C3
:100EB00030E02130310539F482E08093840341E051
:100EC0006BEC70E026C12230310589F520E030E07E
:100ED00040E050E0BE01675E7F4F89E793E00E94EB
:100EE000790F882309F419C1898D882309F476C004
:100EF000E0917F03F0918003309709F400C1808175
:100F0000882309F4FCC040E068EB70E089E793E0D7
:100F10000E94B70F83E08093840360917F037091F8
:100F2000800341E089E793E00E94D80FF6C02330A8
:100F30003105D1F420E030E040E050E0BE01675ED2
:100F40007F4F89E793E00E94790F882309F4E5C079
:100F5000898D882309F442C084E08093840389E763
:100F600093E00E9484103DC02430310509F042C056
:100F70008C010E5F1F4FAE01435F5F4F6CEA70E064
:100F8000C8010E946909AE014F5F5F4F60EA70E0DF
:100F9000C8010E9469099E012F5F3F4FAE01435F68
:100FA0005F4FBE01675E7F4F89E793E00E94790F34
:100FB000882309F4B2C0898D882339F085E08093B5
:100FC000840341E065E970E0A4C089E793E00E94F2
:100FD0008410693873418105910518F063E070E071
:100FE00089C040ED57E060E070E089E793E00E943F
:100FF000CF108CC025303105E9F420E030E040E02E
:1010000050E0BE01675E7F4F89E793E00E94790F51
:10101000882309F482C040ED57E060E070E089E782
:1010200093E00E94CF1086E08093840341E06BE858
:1010300070E06FC026303105A9F420E030E040E0D8
:1010400050E0BE01675E7F4F89E793E00E94790F11
:10105000882309F462C087E08093840341E061E85B
:1010600070E057C027303105A9F420E030E040E0BF
:1010700050E0BE01675E7F4F89E793E00E94790FE1
:10108000882309F44AC088E08093840341E06DE737
:1010900070E03FC028303105A1F420E030E040E0AE
:1010A00050E0BE01675E7F4F89E793E00E94790FB1
:1010B000882399F189E08093840341E063E770E03D
:1010C00028C02930310549F520E030E040E050E00B
:1010D000BE01675E7F4F89E793E00E94790F882306
:1010E000E1F0898D882309F479CF83E08093890327
:1010F00061E070E089E793E00E94A50F0EC084E0F4
:101100008093840389E793E00E94841041E061ECBE
:1011100070E089E793E00E94B70F69960FB6F894E4
:10112000DEBF0FBECDBFDF91CF911F910F9108950C
:101130000F931F93CF93DF938C01C9E7D3E07F8395
:101140006E83BC016E5F7F4F42E0CE010E947A1039
:1011500082E0888BC8010E944A078A8590E0DF916F
:10116000CF911F910F910895CF92DF92EF92FF924E
:101170001F93CF93DF931F92CDB7DEB76C017B0136
:10118000122F61E087E049830E94E9214981C6016D
:10119000442319F00E941C0702C00E94360740E851
:1011A00055E260E070E086E993E00E943718B701ED
:1011B000C6010E94980811110BC0809189030F90FD
:1011C000DF91CF911F91FF90EF90DF90CF90089526
:1011D000D601ED91FC910084F185E02DC6010995C1
:1011E000892B59F768EE73E080E090E00E94492176
:1011F000EFCFCF93DF931F92CDB7DEB780918403FB
:10120000813019F0823061F024C041E06BEC70E075
:1012100089E793E00E94B70F82E08093840319C0AE
:1012200020E030E040E050E0BE016F5F7F4F89E793
:1012300093E00E94790F882361F08981882319F057
:1012400061E070E002C063E070E089E793E00E9433
:10125000A50F0F90DF91CF91089520918503223043
:1012600019F0233019F008950C944A070C94F908EA
:1012700002970C942D090F931F93CF93DF938C014A
:10128000C9E7D3E01A8681E08B87B8016E5F7F4F94
:1012900043E0CE010E947A10C8010E94F9088A85B5
:1012A00090E0DF91CF911F910F9108950F9300E08F
:1012B00020E040E060E081E693E00E94831E0F9111
:1012C000089589E793E00E9462108091830390E083
:1012D0000895FB01DA0184918D9331968111FBCF42
:1012E000089580E090E0089580E090E00895CF9226
:1012F000DF92EF92FF92DB011296CD90DD90ED90A0
:10130000FC901597FC01C186D286E386F486109284
:10131000800310927F030190F081E02D0484F58515
:10132000E02D60E070E0FF90EF90DF90CF900994A7
:101330000895089580E090E00895089581E09091E7
:101340008903953009F080E0089580918903853004
:1013500021F48BE793E00C94F81E089580918903A3
:10136000853021F48BE793E00C94FA1E0895809168
:101370008903853031F064E070E089E793E00E94F2
:10138000A50F8091AA039091A903891B8F7719F06B
:1013900061E070E002C064E070E089E793E00E94E1
:1013A000A50F8091830390E00895EF92FF921F9321
:1013B000CF93DF93CDB7DEB72C970FB6F894DEBF8F
:1013C0000FBECDBF03967C01AE014F5F5F4F6EEC49
:1013D00070E00E94690911E080918903853009F06D
:1013E00010E020E040E0BE016F5F7F4F89EA93E0AC
:1013F0000E949302182341F084E080938903B7018F
:1014000089E793E00E945A0F812F2C960FB6F8942B
:10141000DEBF0FBECDBFDF91CF911F91FF90EF9048
:10142000089503970C94D50960E070E089EA93E091
:101430000E940F0290E0089503960C946109CF93E7
:10144000DF93EC0182E891E0998388838CEA91E054
:101450009C838B83CE0107960E94791ED0931B0339
:10146000C0931A03DF91CF9108950F9300E020E01D
:1014700040E060E087E693E00E94831E0F910895AC
:101480000F931F93CF93DF93CDB7DEB72D970FB692
:10149000F894DEBF0FBECDBF8C01909184039330D2
:1014A00009F473C028F4913049F0923001F1C7C0BB
:1014B000943009F485C09B3029F0C1C040E064E05D
:1014C00071E029C040E068EF70E089E793E00E9496
:1014D000B70FE0917F03F0918003309709F4A3C028
:1014E000808180538A3008F49EC061E39DC020E073
:1014F00030E040E050E0BE01635F7F4F89E793E05A
:101500000E94790F882309F49AC08D858823D1F130
:1015100040E06DEE70E089E793E00E94B70F6BE565
:1015200071E08BE793E00E94F81E60917F03709159
:1015300080036115710529F08BE793E00E94F81E86
:1015400006C06BE773E0C80107960E94371E62E28F
:101550008BE793E00E94FA1E6CE28BE793E00E9417
:10156000FA1E60918103709182034AE050E08BE79C
:1015700093E00E94B51F6DE08BE793E00E94FA1E96
:1015800083E01BC063E070E049C020E030E040E051
:1015900050E0BE01635F7F4F89E793E00E94790FBF
:1015A000882309F44CC08D85882361F363E671E0DC
:1015B00085EA94E00E94051F84E0809384033FC085
:1015C000AE014F5F5F4F60EE70E0C80103960E946E
:1015D000690920E030E0AE014F5F5F4FBE01635FFD
:1015E0007F4F89E793E00E94790F882341F16FE6EE
:1015F00071E085EA94E00E94051F8D85882311F231
:1016000085E08093890321E041E0BE016F5F7F4F59
:1016100089EA93E00E94930261E070E089E793E039
:101620000E94A50F0CC060E38BE793E00E94FA1EB6
:101630006DE08BE793E00E94FA1E82E0BECF2D960C
:101640000FB6F894DEBF0FBECDBFDF91CF911F91D3
:101650000F910895EF92FF920F931F93CF93DF9313
:101660008C01C9E7D3E059874887FC013687258775
:101670007F836E837C01F3E0EF0EF11C4EE0B70137
:10168000CE010E947A10B701CE010E943E0FC80120
:101690000E94400A8A8590E0DF91CF911F910F91BF
:1016A000FF90EF900895CF93DF93EC0123964FE0E6
:1016B000BE0189E793E00E947A1068EE73E080E053
:1016C00090E00E9449216AE771E08BE793E00E9475
:1016D000F81E68EE73E080E090E00E94492141E04E
:1016E00065ED70E089E793E00E94B70F84E0809396
:1016F000890389EA93E00E94260286E993E00E942A
:10170000E11764E670E080E090E00E94492161E02A
:1017100070E089E793E00E94A50F9091AA03809161
:10172000A903981B9F7729F7BE0189E793E00E94E0
:101730005A0F8091830390E0DF91CF910895CF936A
:101740008091A9039091AA038150891B8F77A9F0FA
:1017500089EA93E00E94FD01C82F9091A90380912E
:10176000AA039150981B9F77943621F486E993E061
:101770000E94E1178C2F90E002C080E090E0CF91B2
:1017800008958091AA039091A903891B8F7741F056
:1017900089EA93E00E94260286E993E00C94E1171F
:1017A00061E070E089E793E00C94A50F2091850338
:1017B0002E3039F0233139F0213039F46093AA0307
:1017C00008950C94400A0C94C10B089503970C944F
:1017D000D60BCF93DF93EC01BC016D5F7F4F43E1EC
:1017E00089E793E00E947A10CE01DF91CF910C94AB
:1017F000C10BCF93DF93CDB7DEB72D970FB6F8941B
:10180000DEBF0FBECDBF2091840330E02130310513
:10181000B1F440E06DEA71E089E793E00E94B70F10
:101820004AE050E060E070E08BE793E00E94B51F73
:101830006DE08BE793E00E94FA1E82E01CC022302C
:101840003105F9F420E030E040E050E0BE01635F94
:101850007F4F89E793E00E94790F882309F474C1D0
:101860008D85882359F041E062EA71E089E793E0D1
:101870000E94B70F83E08093840366C163E070E049
:101880005FC123303105D1F420E030E040E050E08A
:10189000BE01635F7F4F89E793E00E94790F882341
:1018A00009F452C18D85882349F341E066E971E06E
:1018B00089E793E00E94B70F84E0DDCF2430310543
:1018C000D1F420E030E040E050E0BE01635F7F4FA4
:1018D00089E793E00E94790F882309F435C18D854B
:1018E000882361F241E069E871E089E793E00E94B2
:1018F000B70F85E0C0CF2530310579F520E030E025
:1019000040E050E0BE01635F7F4F89E793E00E94B3
:10191000790F882309F418C18D85882309F4AECF87
:1019200040E065E771E089E793E00E94B70F6091BE
:101930007F03709180038BE793E00E94F81E68EFAD
:1019400071E08BE793E00E94F81E63EA72E08BE798
:1019500093E00E94F81E86E08ECF26303105D9F440
:1019600020E030E040E050E0BE01635F7F4F89E758
:1019700093E00E94790F882309F4E6C08D858823BF
:1019800009F47CCF41E068E671E089E793E00E94CA
:10199000B70F88E070CF28303105D9F420E030E06F
:1019A00040E050E0BE01635F7F4F89E793E00E9413
:1019B000790F882309F4C8C08D85882309F45ECF88
:1019C00041E06DE571E089E793E00E94B70F89E09F
:1019D00052CF29303105D9F420E030E040E050E02A
:1019E000BE01635F7F4F89E793E00E94790F8823F0
:1019F00009F4AAC08D85882309F440CF41E060E551
:101A000071E089E793E00E94B70F8AE034CF2A3073
:101A10003105D9F420E030E040E050E0BE01635FE2
:101A20007F4F89E793E00E94790F882309F48CC0E7
:101A30008D85882309F422CF41E068E471E089E7CD
:101A400093E00E94B70F8BE016CF2B303105D9F40D
:101A500020E030E040E050E0BE01635F7F4F89E767
:101A600093E00E94790F882309F46EC08D85882346
:101A700009F404CF41E06BE371E089E793E00E9451
:101A8000B70F8CE0F8CE2C303105D9F420E030E0EF
:101A900040E050E0BE01635F7F4F89E793E00E9422
:101AA000790F882309F450C08D85882309F4E6CE88
:101AB00041E062E371E089E793E00E94B70F8DE0B7
:101AC000DACE2D303105D1F420E030E040E050E0B6
:101AD000BE01635F7F4F89E793E00E94790F8823FF
:101AE00099F18D85882309F4C9CE41E069E271E05E
:101AF00089E793E00E94B70F8EE0BDCE2E3031050E
:101B000019F5AE014F5F5F4F67E271E002960E94E8
:101B1000690920E030E0AE014F5F5F4FBE01635FB7
:101B20007F4F89E793E00E94790F882369F08D85C4
:101B3000882309F4A3CE84E08093890361E070E0F8
:101B400089E793E00E94A50F2D960FB6F894DEBFAB
:101B50000FBECDBFDF91CF910895EF92FF920F930B
:101B6000CF93DF93EC015D834C833F832E8370938F
:101B7000800360937F037C0182E0E80EF11C4CE05F
:101B8000B70189E793E00E947A1082E0809389038D
:101B9000CE010E94F90B011108C080918903DF91E9
:101BA000CF910F91FF90EF900895C7010E946109B6
:101BB000892B99F764E670E080E090E00E9449216B
:101BC000F4CF0F9301E00E94AD0D0F9108950F9394
:101BD0001F93CF93DF93E9018A019B0143EA52E00F
:101BE000BA0189EA93E00E94D302811102C01882EF
:101BF00002C081E0888381E0DF91CF911F910F9136
:101C000008950F9300E020E040E060E08DE693E06F
:101C10000E94831E0F9108951F93CF93DF93CDB73A
:101C2000DEB72D970FB6F894DEBF0FBECDBF109173
:101C300084031230D9F01330C1F1113009F058C0CB
:101C400040E06DEA71E089E793E00E94B70F4AE057
:101C500050E060E070E08BE793E00E94B51F6DE01C
:101C60008BE793E00E94FA1E82E015C0AE014F5F41
:101C70005F4F6CE171E002960E946909BE016F5FDF
:101C80007F4F89EA93E00E948102882389F18D8544
:101C9000882321F083E0809384032AC063E070E00E
:101CA00089E793E00E94A50F23C020E030E040E0E8
:101CB00050E0BE01635F7F4F89E793E00E94790F98
:101CC000882371F08D85882329F01093890361E0C2
:101CD00070E002C063E070E089E793E00E94A50F26
:101CE00089EA93E00E94260286E993E00E94E117C8
:101CF0002D960FB6F894DEBF0FBECDBFDF91CF910A
:101D00001F910895FF920F931F93CF93DF938C0140
:101D1000F62EEC0122964DE0BE0189E793E00E9489
:101D20007A1082E080938903C8010E940C0EF110A2
:101D300008C080918903DF91CF911F910F91FF908F
:101D40000895CE010E946109892B99F761E070E046
:101D500080E090E00E944921F4CF61E00C94820E73
:101D6000CF93DF931F92CDB7DEB72091840321304C
:101D700019F0223061F02EC041E061E171E089E7A5
:101D800093E00E94B70F82E08093840323C04091C8
:101D900081035091820360917F03709180039E01C3
:101DA0002F5F3F4F0E94E70D882361F089818823D0
:101DB00019F061E070E002C063E070E089E793E051
:101DC0000E94A50F89EA93E00E94260286E993E02B
:101DD0000E94E1170F90DF91CF9108952091850324
:101DE0002D3031F0253131F02C3031F40C94F90BD9
:101DF0000C940C0E0C94B00E089502970C94EE0EF9
:101E00000F9300E020E040E060E083E793E00E9471
:101E1000831E0F910895CF92DF92FF920F931F932D
:101E2000CF93DF931F92CDB7DEB78C016B01F60124
:101E3000F490FF2059F0D801ED91FC910280F381DC
:101E4000E02D6F2DC801498309954981BFEFCB1A59
:101E5000DB0AF110ECCF442331F06BEF71E0C801E5
:101E600002960E94F81E81E090E00F90DF91CF91E2
:101E70001F910F91FF90DF90CF900895FC01818911
:101E80009289892B59F083899489892B51F085890E
:101E90009689892B71F422E030E005C020E030E023
:101EA00002C021E030E0220F331FE20FF31F728BDC
:101EB000618B0895FC01818992898617970769F0E3
:101EC000838994898617970759F08589968986179B
:101ED000970771F422E030E005C020E030E002C056
:101EE00021E030E0220F331FE20FF31F128A118A24
:101EF0000895EF92FF920F931F93CF93DF937B018F
:101F000089014115510531F4232B21F4409106013B
:101F100050910701EC01E096BA01CE010E948102C6
:101F2000F7018083811109C00115110531F0B80155
:101F3000CE010E948102F701808381E0DF91CF9181
:101F40001F910F91FF90EF900895FC016130710592
:101F500021F080918503823039F0628781E08487A7
:101F6000108E178A8387089510928903F6CF0F93F6
:101F70001F93CF93DF9300D01F92CDB7DEB78C01B4
:101F8000C0964B8369837A830E942602D801ED9123
:101F9000FC910480F581E02D4B8169817A81C80133
:101FA0000F900F900F90DF91CF911F910F91099497
:101FB0000F931F93CF93DF9300D01F92CDB7DEB75F
:101FC0008C01C0964B8369837A830E9426020E5F40
:101FD0001F4F69817A81C8010E94F81E4B814423FA
:101FE00061F06BEF71E0C8010F900F900F90DF91DF
:101FF000CF911F910F910C94F81E0F900F900F909E
:10200000DF91CF911F910F910895AF92BF92CF9220
:10201000DF92FF920F931F93CF93DF931F92CDB761
:10202000DEB78C01F62E5C0181E1A80EB11C6801BF
:10203000A7E1CA0ED11CF501819191915F01009732
:1020400049F1DC01ED91FC910280F381E02D6F2DCF
:10205000498309954981AC14BD0419F0882359F3CB
:102060001DC081111BC0F8018789908D0097B1F0C8
:10207000DC01ED91FC910190F081E02D6F2D0F902E
:10208000DF91CF911F910F91FF90DF90CF90BF9084
:10209000AF900994EC15FD0571F6E5CF0F90DF9137
:1020A000CF911F910F91FF90DF90CF90BF90AF9095
:1020B0000895FC012585222319F066874787089536
:1020C0000C940510CF93DF93EC018D85882379F074
:1020D0009E858F85981759F0CE01C0960E947B038C
:1020E0004F856E85CE010E9405101E861F86DF91EA
:1020F000CF910895FC01708F678B128681E08387F2
:102100004487168617860895CF92DF92EF92FF924A
:102110000F931F93CF93DF93EC010E9418218B0143
:102120009C01498D5A8D6B8D7C8D68017901C41A93
:10213000D50AE60AF70AC701B601098F1A8F2B8F55
:102140003C8FDF91CF911F910F91FF90EF90DF9027
:10215000CF900895CF93DF93EC011D821C8286EC13
:1021600091E09983888380ED91E09B838A83CE01FF
:102170004D960E942219DEA3CDA31E861F8681E004
:102180008A871B868C87CE010E9484101A8A198A3E
:102190001C8A1B8A1E8A1D8ADF91CF910895CF92D7
:1021A000DF92EF92FF92CF93DF9300D000D0CDB7B4
:1021B000DEB7C12CD12C7601C416D506E606F7068B
:1021C00091F088EE93E049835A836B837C830E946D
:1021D00030188FEFC81AD80AE80AF80A7C816B8198
:1021E0005A814981E9CF0F900F900F900F90DF91A6
:1021F000CF91FF90EF90DF90CF90089589E793E023
:102200000C94AA100F931F93CF93DF931F92CDB717
:10221000DEB78C01FC018585882329F0862F698330
:102220000E9462036981C8014D960F90DF91CF91A2
:102230001F910F910C94E91702970C9402110F93C0
:1022400000E020E040E060E08DE294E00E94831E28
:102250000F9108950F9300E020E040E060E083E3F9
:1022600094E00E94831E0F9108950F9300E020E0F8
:1022700040E060E089E394E00E94831E0F9108959E
:102280000F9300E020E040E060E08FE394E00E94E4
:10229000831E0F91089580E090E0089580E090E023
:1022A000089581E090918903953009F080E00895C8
:1022B00081E090918903953009F080E0089580E0F5
:1022C00090E0089502960C94610928ED31E0FC013C
:1022D000318320832EEE31E03383228390934C03AD
:1022E00080934B0308950F931F93CF93DF9300D0F8
:1022F00000D0CDB7DEB78C0190918403923099F075
:1023000060F4913009F079C041E068EE71E089E74E
:1023100093E00E94B70F82E034C09330C1F1943053
:1023200009F44EC06AC08DE089838AE08A831B82EB
:1023300020E030E0AE014F5F5F4FBE016C5F7F4F2A
:1023400089E793E00E94790F882309F456C08C81B5
:102350008823D1F040E066ED71E089E793E00E94C8
:10236000B70F60918103709182034AE050E08BE7E0
:1023700093E00E94B51F6DE08BE793E00E94FA1E88
:1023800083E08093840339C063E070E032C020E0D2
:1023900030E040E050E0BE016C5F7F4F89E793E0A2
:1023A0000E94790F882349F18C81882369F341E0E9
:1023B0006AEC71E089E793E00E94B70F84E0E1CF17
:1023C00020E030E040E050E0BE016C5F7F4F89E7E5
:1023D00093E00E94790F882381F08C818823A1F2F9
:1023E000B8016E5F7F4F89E793E00E943E0F61E086
:1023F00070E089E793E00E94A50F0F900F900F9077
:102400000F90DF91CF911F910F9108952091850337
:10241000213019F0243121F008956093AA03089522
:102420000C94731102970C9406120F931F93CF9381
:10243000DF938C01C9E7D3E079876887BC016E5FC1
:102440007F4F44E1CE010E947A10C8010E947311AF
:102450008A8590E0DF91CF911F910F9108950F939E
:102460001F93CF93DF93CDB7DEB72F970FB6F894B6
:10247000DEBF0FBECDBF8C010E5F1F4FAE014F5FA1
:102480005F4F61EC71E0C8010E946909BE016F5F96
:102490007F4F89EA93E00E948102882319F084E04B
:1024A00080938903AE014F5F5F4F67EB71E0C80116
:1024B0000E946909BE016F5F7F4F89EA93E00E9425
:1024C0008102182F882381F021E041E0BE016F5F77
:1024D0007F4F89EA93E00E94930286E993E00E948D
:1024E000E11785E080938903812F2F960FB6F8942A
:1024F000DEBF0FBECDBFDF91CF911F910F91089529
:1025000002970C942F120F931F939B018A0148EF9F
:1025100051E062EF71E089EA93E00E94D30281E02A
:1025200090E01F910F910895FC012681211109C0AF
:1025300021E0268341E064EA72E089EA93E00E94A8
:10254000930260E070E089EA93E00E940F0290E05D
:10255000089502960C94610927E132E0FC01318371
:1025600020832FE232E033832283909358038093B9
:1025700057030895CF93DF931F92CDB7DEB78091B5
:102580008403813019F08230D1F032C082E0809330
:10259000840340E063E172E089E793E00E94B70FB3
:1025A00060917F03709180038BE793E00E94F81E97
:1025B0006AEF71E08BE793E00E94F81E19C020E0FB
:1025C00030E04DEF51E0BE016F5F7F4F89E793E050
:1025D0000E94790F882361F08981882319F061E0D6
:1025E00070E002C063E070E089E793E00E94A50F0D
:1025F0000F90DF91CF910895CF93DF9320918903BE
:102600002350223018F082E090E013C0EC01709368
:10261000800360937F03BC016E5F7F4F44E089E7D6
:1026200093E00E947A10CE010E94BA128091830337
:1026300090E0DF91CF9108950F931F93CF93DF9395
:10264000EC018B019091A9038091AA039150981BF2
:102650009F7781E0953008F080E08F8321E041E0B2
:102660006FEF71E089EA93E00E949302811103C049
:10267000F801108203C081E0F801808389EA93E0C9
:102680000E942E039D838C8366E072E089EA93E0CA
:102690000E9481028887198681E0DF91CF911F9186
:1026A0000F910895CF93DF931F92CDB7DEB720919E
:1026B0008403213019F0223061F01EC041E06CEF3C
:1026C00071E089E793E00E94B70F82E08093840372
:1026D00013C0BE016F5F7F4F0E941C13882361F0FF
:1026E0008981811103C064E070E002C061E070E0A4
:1026F00089E793E00E94A50F0F90DF91CF91089595
:10270000CF93DF93EC011E82BC016E5F7F4F46E0EA
:1027100089E793E00E947A10CE010E9452138091C3
:10272000830390E0DF91CF9108950F931F93CF9390
:10273000DF931F92CDB7DEB78C0190918403913067
:1027400019F09230D9F033C082E08093840340E0E6
:1027500063EF71E089E793E00E94B70FF8016481AD
:1027600075814AE050E08BE793E00E94B51F6BEF64
:1027700071E08BE793E00E94F81E19C020E030E082
:1027800040E050E0BE016F5F7F4F89E793E00E9419
:10279000790F882361F08981882319F061E070E066
:1027A00002C063E070E089E793E00E94A50F0F90FC
:1027B000DF91CF911F910F910895CF93DF931F92D7
:1027C000CDB7DEB780918403813019F0823081F07B
:1027D00028C082E0809384036AE189E793E00E9445
:1027E00002116BEF71E08BE793E00E94F81E19C0B5
:1027F00020E030E040E050E0BE016F5F7F4F89E7AE
:1028000093E00E94790F882361F08981882319F071
:1028100061E070E002C063E070E089E793E00E944D
:10282000A50F0F90DF91CF9108952091850325305A
:1028300081F028F4213041F0243049F00895263009
:1028400051F0273051F008956093AA0308950C9435
:10285000BA120C94DD130C9452130C949513029736
:102860000C941514CF93DF93EC01BC016E5F7F4F86
:1028700045E089E793E00E947A10CE010E94DD13C3
:10288000E881F9810088F189E02DCE010995892B35
:1028900039F464E670E080E090E00E944921F0CFD6
:1028A0008091830390E0DF91CF91089589E793E0D1
:1028B0000C9402110F931F93CF93DF93EC018E8141
:1028C00081110AC081E08E8321E041E064EA72E078
:1028D00089EA93E00E94930289EA93E00E94FD0155
:1028E000082F8985882341F0198666E072E089EA1D
:1028F00093E00E94810288878885811128C08F819A
:10290000882341F18091A9039091AA038150891BEA
:102910008F7710E08F3709F041C089EA93E00E9479
:1029200026021F8281E08987BE016E5F7F4F40E0F3
:1029300089E793E00E947A1086E993E00E94E1170C
:102940006AE070E080E090E00E94492127C066E0E4
:1029500072E002C06CE072E089EA93E00E948102BA
:10296000811119C089EA93E00E942602BE016E5FC0
:102970007F4F40E089E793E00E947A1086E993E078
:102980000E94E1176AE070E080E090E00E94492137
:1029900080E090E004C0802F90E001C0C801DF918A
:1029A000CF911F910F9108950F931F93CF93DF93B2
:1029B0008C01C5E0D0E089EA93E00E94260286E916
:1029C00093E00E94E1176AE070E080E090E00E94EE
:1029D0004921219781F7B8016E5F7F4F47E089E772
:1029E00093E00E947A10C801DF91CF911F910F915F
:1029F0000C949513CF93DF93EC01E881F981068461
:102A0000F785E02D09958E81DF91CF910895FC0126
:102A100066830895BC016E5F7F4F89E793E00C9455
:102A20003E0F0F931F93CF93DF93EC018B0140E098
:102A300060E572E089E793E00E94B70FB8018BE789
:102A400093E00E94F81E63E372E08BE793E00E943C
:102A5000F81EE881F9810484F585E02D61E0CE015E
:102A6000099581E090E0DF91CF911F910F9108953A
:102A7000CF92DF92FF920F931F93CF93DF93CDB747
:102A8000DEB72F970FB6F894DEBF0FBECDBF8C0117
:102A90006C0182E0C80ED11CAE014F5F5F4F6BE34B
:102AA00072E0C6010E946909BE016F5F7F4F89EA2B
:102AB00093E00E948102F82E882341F0D801ED9125
:102AC000FC910484F585E02D62E019C0AE014F5FF2
:102AD0005F4F64E372E0C6010E946909BE016F5F47
:102AE0007F4F89EA93E00E948102F82E882371F0DB
:102AF000D801ED91FC910484F585E02D63E0C801D7
:102B0000099589EA93E00E9426024BC0AE014F5F0F
:102B10005F4F69E272E0C6010E946909BE016F5F02
:102B20007F4F89EA93E00E948102F82E811112C042
:102B3000AE014F5F5F4F64E272E0C6010E94690917
:102B4000BE016F5F7F4F89EA93E00E948102F82EF9
:102B5000882341F0D801ED91FC910484F585E02DA6
:102B600060E0CDCFAE014F5F5F4F6DE172E0C60117
:102B70000E946909BE016F5F7F4F89EA93E00E945E
:102B80008102F82E882369F089EA93E00E942602E8
:102B9000D801ED91FC910484F585E02D62E0C80137
:102BA00009958F2D2F960FB6F894DEBF0FBECDBFBF
:102BB000DF91CF911F910F91FF90DF90CF900895FB
:102BC00002970C94381502960C946109FC018DE46F
:102BD00092E09183808385E692E0938382831582DD
:102BE0001482F0935A03E093590308950F931F93AF
:102BF0009B018A0148EF51E066E372E089EA93E0C5
:102C00000E94D30289EA93E00E94260281E01F918C
:102C10000F91089520918403213019F0223061F042
:102C2000089541E068E472E089E793E00E94B70FFD
:102C300082E0809384030895FC0144815581609172
:102C40007F03709180030E94F615882331F061E0C4
:102C500070E089E793E00C94A50F08950F931F93FC
:102C6000CF93DF938C01C9E7D3E07F836E83FC01B0
:102C7000558344831A8681E08B87B8016E5F7F4F4E
:102C80004BE0CE010E947A10C8010E940A168A8584
:102C900090E0DF91CF911F910F9108950F931F93B3
:102CA000CF93DF931F92CDB7DEB78C018091840361
:102CB000813019F0823061F02DC041E064E472E0AF
:102CC00089E793E00E94B70F82E08093840322C0DB
:102CD00020E030E040E050E0BE016F5F7F4F89E7C9
:102CE00093E00E94790F8823A9F0D801ED91FC911F
:102CF0000484F585E02D63E0C80109958981882366
:102D000019F061E070E002C063E070E089E793E0F1
:102D10000E94A50F0F90DF91CF911F910F91089501
:102D20000F931F93CF93DF938C01C9E7D3E01A86EB
:102D300081E08B87B8016E5F7F4F49E0CE010E9432
:102D40007A10C8010E944E168A8590E0DF91CF91DB
:102D50001F910F9108950F931F93CF93DF931F92AD
:102D6000CDB7DEB78C0180918403813019F08230B9
:102D700061F02DC041E060E472E089E793E00E94D9
:102D8000B70F82E08093840322C020E030E040E06F
:102D900050E0BE016F5F7F4F89E793E00E94790F9B
:102DA0008823A9F0D801ED91FC910484F585E02DEC
:102DB00060E0C80109958981882319F061E070E01D
:102DC00002C063E070E089E793E00E94A50F0F90D6
:102DD000DF91CF911F910F9108950F931F93CF9380
:102DE000DF938C01C9E7D3E01A8681E08B87B801B5
:102DF0006E5F7F4F4AE0CE010E947A10C8010E94A8
:102E0000AB168A8590E0DF91CF911F910F910895C5
:102E1000209185032A3031F02B3031F0293031F404
:102E20000C944E160C94AB160C940A160895029747
:102E30000C9408178091570390915803DC01ED9191
:102E4000FC910280F381E02D099581E090E00895E6
:102E50008091570390915803DC01ED91FC91068419
:102E6000F785E02D09948091570390915803DC0178
:102E7000ED91FC910084F185E02D0994FC01138211
:102E8000128288EE93E0A0E0B0E084839583A6836D
:102E9000B7838DE692E091838083662319F0848561
:102EA0008160848708958091570390915803DC01D5
:102EB000ED91FC910088F189E02D099480915703F0
:102EC00090915803DC01ED91FC910484F585E02D8F
:102ED0000994CF92DF92EF92FF92CF93DF93FC01A0
:102EE000248520FF1EC0EC010E9418216B017C018B
:102EF0000E941821DC01CB018C199D09AE09BF0984
:102F000080319742A105B105A0F4CE010E9453176C
:102F1000892B79F464E670E080E090E00E9449211A
:102F2000E7CFDF91CF91FF90EF90DF90CF900C949F
:102F30005317CE010E94531721E030E0019711F0A2
:102F400020E030E0C901DF91CF91FF90EF90DF905A
:102F5000CF900895CF93DF93EC0180915703909128
:102F60005803DC01ED91FC910284F385E02D099575
:102F700061E070E0CE01DF91CF910C946917CF939F
:102F8000DF93EC018091570390915803DC01ED91A0
:102F9000FC910680F781E02D0995BC01CE01DF91FF
:102FA000CF910C9469170F9300E020E040E060E0BF
:102FB0008FE494E00E94831E85E494E00F910C94CA
:102FC000AC12DC01ED91FC910280F381E02D61E116
:102FD0000994CF93DF93FC0120893189232B51F190
:102FE000EC010190F081E02D0280F381E02D613150
:102FF00049F467E70995E881F9810280F381E02DC2
:103000006EEE14C0633149F467E70995E881F981F0
:103010000280F381E02D6CEE09C0673741F4099519
:10302000E881F9810280F381E02D68E8CE01DF912B
:10303000CF91099480E090E0DF91CF910895DC0179
:103040001696ED91FC911797908115968C9180952D
:103050008923808308951092560410925504089590
:1030600020E001972FEF8F3F9207D9F70895CF9275
:10307000DF92EF92FF92CF93DF93EC01198A188AC7
:103080001F861E861D861C8684E592E020E030E0C7
:10309000FC01C590D590E590F490C416D506E606DF
:1030A000F70619F54CE0429FC001439F900D112493
:1030B000FC01E85AFD4F259134913B872A87FC019A
:1030C000E65AFD4F259134913D872C87FC01E45A47
:1030D000FD4F259134913F872E87FC01E25AFD4F29
:1030E00085919491998B888B09C02F5F3F4F0C96E7
:1030F0002C30310509F0CCCF1B861A868E859F8532
:10310000892B71F0809168008460809368008091C1
:103110006D00846080936D00888999890E943018C1
:10312000D0935604C0935504DF91CF91FF90EF9058
:10313000DF90CF900895611102C00C941F18DC013C
:103140001696ED91FC911797208115968C91822B04
:1031500080830895DF92EF92FF920F931F93CF9396
:10316000DF93EC01D62EEFB6F8940E941F188889E1
:10317000998905960E94301808E010E0FF24F39426
:103180008F2D8D2129F061E0CE010E949B1803C094
:10319000CE010E941F18888999890E943018FF0C5F
:1031A0000150110969F761E0CE010E949B18EFBE42
:1031B000888999890E94301881E090E0DF91CF9151
:1031C0001F910F91FF90EF90DF900895CF93DF93C1
:1031D000EC0161E083E00E94E92161E083E00E946C
:1031E0002522EBEFF2E0E491ED83EFE0F3E0E491F0
:1031F000F0E0EE0FFF1FE65DFC4F859194919F83F9
:103200008E83DF91CF910895CF93DF93EC0160E03F
:1032100082E00E94E92161E082E00E942522EAEF3B
:10322000F2E0E491EA83EEE0F3E0E491F0E0EE0F07
:10323000FF1FE05EFC4F859194919C838B83DF910F
:10324000CF910895CF93DF93EC018DE792E09983BE
:1032500088831B861A861D861C861F861E86198AF1
:10326000188ABE01CE0143960E94DE01CE010E9463
:10327000E618CE01DF91CF910C940419FC01DB011B
:103280008C9192898F3F29F491FF09C082E09827A1
:1032900003C0873721F49160928B80E0089590FFFE
:1032A00010C08E3E11F481E107C08C3E11F483E121
:1032B00003C0883811F487E78C93928981E08927CD
:1032C000828B81E008957F928F929F92AF92BF92FE
:1032D000CF92DF92EF92FF920F931F93CF93DF93E2
:1032E0001F92CDB7DEB72F933F934F935F936F93AA
:1032F0007F93AF93BF931982DC011396ED91FC91FC
:103300001497308112962C91232309F08BC08C01E5
:10331000B12C772473946C01B3E1CB0ED11CF8016E
:103320008489828593850E943018D80153969C9198
:10333000539754968C919150981B9F77EE24E39469
:10334000963010F0E12C05C0B11003C0C8010E94F6
:103350001F1898E0892E912CFF24F394F80184859E
:1033600095850E943018D8011396ED91FC91149721
:10337000908112968C9198238981992311F08F293D
:1033800003C09F2D909589238983EE2069F0B110A9
:103390000BC08F2D837129F061E0C8010E949B183A
:1033A00003C0C8010E941F18FF0CB1E08B1A9108DE
:1033B000A9F6EE2009F459C0B11009C0F8018485BE
:1033C00095850E94301861E0C8010E949B18F801A1
:1033D00082898260828BBB24B394BE016F5F7F4F72
:1033E000C8010E943E19811134C082E3882E912CBD
:1033F00081E090E00E943018D8011396ED91FC9185
:103400001497908112968C91892309F488CFB1E0AA
:103410008B1A910869F7E11030C089818A3069F10F
:10342000803259F1BF91AF917F916F915F914F9130
:103430003F912F910F90DF91CF911F910F91FF90AE
:10344000EF90DF90CF90BF90AF909F908F907F9044
:1034500008956981C6010E94E401772009F4C5CF6F
:10346000D8015496AC90712CC0CFD8011E968D9186
:103470009C911F970E943018B0CFF80180859185EC
:10348000009781F24489DC01ED91FC910190F0817B
:10349000E02D6A2D0995C6CF809155049091560470
:1034A000009711F00C94631908951F920F920FB6B4
:1034B0000F9211242F933F934F935F936F937F93BA
:1034C0008F939F93AF93BF93EF93FF930E944C1AF8
:1034D000FF91EF91BF91AF919F918F917F916F91EC
:1034E0005F914F913F912F910F900FBE0F901F90C2
:1034F00018951F920F920FB60F9211242F933F939E
:103500004F935F936F937F938F939F93AF93BF93EB
:10351000EF93FF930E944C1AFF91EF91BF91AF91EF
:103520009F918F917F916F915F914F913F912F91DB
:103530000F900FBE0F901F9018951F920F920FB60D
:103540000F9211242F933F934F935F936F937F9329
:103550008F939F93AF93BF93EF93FF930E944C1A67
:10356000FF91EF91BF91AF919F918F917F916F915B
:103570005F914F913F912F910F900FBE0F901F9031
:1035800018950F9300E020E040E060E08EE594E0C5
:103590000E94831E87E594E00F910C94E6150F932B
:1035A00000E020E040E060E08FE994E00E94831EAC
:1035B00060E08BE994E00E94100761E08DE894E000
:1035C0000E940604E5E8F4E084EB91E091838083B7
:1035D0008EEB91E09383828361E088E794E00F9122
:1035E0000C943E17CF93DF9300D000D000D0CDB71E
:1035F000DEB763E872E0CE0101960E94C3226091BB
:103600001D0170911E01CE0101960E94062368E9FA
:1036100072E0CE0101960E94062364E670E0CE01BE
:1036200001960E94282361EA72E0CE0101960E9471
:10363000062340910801509109016AE071E08DE88C
:1036400094E00E945F04892BA1F166EA72E08DE8A4
:1036500094E00E94F81E6D817E814AE050E08DE882
:1036600094E00E94D01F6BEF71E08DE894E00E941F
:10367000F81E6DEF71E08DE894E00E94C42088236D
:1036800091F0BE016F5F7F4F8DE894E00E94EA1ECB
:103690006AE18DE894E00E941E056BEF71E08DE811
:1036A00094E00E94F81E62EB72E085EA94E00E94CA
:1036B000051F8DE894E00E94E805CE0101960E9466
:1036C000552226960FB6F894DEBF0FBECDBFDF9110
:1036D000CF9108950F9361E08DE00E94E92160E0B1
:1036E0008DE00E94252226E040E855E260E070E08F
:1036F00085EA94E00E94431D61E08CE00E94E9218C
:1037000060E08CE00E94252221E040E060E070E073
:103710008BE994E00E94B408833099F420911F0152
:1037200030912001409121015091220160912301AB
:103730007091240101E085E894E00E94AD0D843091
:1037400039F068EE73E080E090E00E944921DCCF20
:1037500061E08DE00E94E92161E08DE00F910C9421
:1037600025221F93CF93DF93EC0165EA72E00E945C
:10377000C32288E794E00E94BF17892B99F144E1A6
:1037800050E064E674E088E794E00E945E1764E627
:1037900074E085EA94E00E94051F88E794E00E94A7
:1037A0003317839721F488E794E00E94AA1788E7EB
:1037B00094E00E942817182F882351F0612F85EA82
:1037C00094E00E94FC1C612FCE010E941523EFCFD4
:1037D0006BEF71E085EA94E00E94051F88E794E0B2
:1037E0000E94AA17CE01DF91CF911F9108950F93E8
:1037F0001F93CF93DF93CDB7DEB762970FB6F894E0
:10380000DEBF0FBECDBF0E94F21ACE010D960E9400
:10381000B11B89899A89892B09F45AC067EB72E038
:10382000CE0101960E94C32264E674E0CE010796A1
:103830000E94C322BE016F5F7F4FCE0107960E9498
:1038400075238C01CE0107960E945522CE01019668
:103850000E94552217FD3CC061EC72E0CE0101963A
:103860000E94C322BE016F5F7F4FCE010D960E9462
:1038700075238C01CE0101960E94552217FD0AC0C6
:1038800060E08CE00E94252264EC72E085EA94E01E
:103890000E94051F6DEC72E0CE0101960E94C322CA
:1038A000BE016F5F7F4FCE010D960E9475238C0184
:1038B000CE0101960E94552217FD0AC061E08CE0FE
:1038C0000E94252261ED72E085EA94E00E94051FC6
:1038D00060ED77E080E090E00E944921CE010D96F6
:1038E0000E94552262960FB6F894DEBF0FBECDBF80
:1038F000DF91CF911F910F910895FC01918D228D41
:10390000892F90E0805C9F4F821B91098F739927CC
:103910000895FC01918D828D981731F0828DE80F0A
:10392000F11D858D90E008958FEF9FEF0895FC01C4
:10393000918D828D981761F0828DDF01A80FB11DE6
:103940005D968C91928D9F5F9F73928F90E008950A
:103950008FEF9FEF089580E09EE1892B49F080E092
:1039600090E0892B29F00E94001E81110C94000028
:103970000895FC01848DDF01A80FB11DA35ABF4F2C
:103980002C91848D90E001968F739927848FA6895E
:10399000B7892C93A089B1898C9180648C93938D85
:1039A000848D981306C00288F389E02D80818F7D75
:1039B00080830895CF93DF93EC01888D8823C9F02D
:1039C000EA89FB89808185FD05C0A889B9898C9128
:1039D00086FD0FC00FB607FCF5CF808185FFF2CFC3
:1039E000A889B9898C9185FFEDCFCE010E94B91CC1
:1039F000E7CFDF91CF910895EF92FF920F931F933E
:103A0000CF93DF93EC0181E0888F9B8D8C8D981391
:103A100005C0E889F989808185FD24C0F62E0B8DCB
:103A200010E00F5F1F4F0F731127E02E8C8DE812EF
:103A30000CC00FB607FCFACFE889F989808185FFB1
:103A4000F5CFCE010E94B91CF1CF8B8DFE01E80F9E
:103A5000F11DE35AFF4FF0820B8FEA89FB898081C9
:103A6000806207C0EE89FF896083E889F9898081D7
:103A70008064808381E090E0DF91CF911F910F916E
:103A8000FF90EF900895CF92DF92EF92FF921F93F5
:103A9000CF93DF93EC016A017B01122FE889F9894A
:103AA00082E080834115514E61057105B1F060E0FF
:103AB00079E08DE390E0A70196010E947A23DA0174
:103AC000C9010197A109B109B695A7959795879561
:103AD000AC01411580E15807A8F0E889F989108206
:103AE00060E874E88EE190E0A70196010E947A23D5
:103AF000BA01A9014150510961097109769567958B
:103B000057954795EC85FD855083EE85FF8540836D
:103B1000188EEC89FD891083EA89FB898081806198
:103B20008083EA89FB89808188608083EA89FB89B8
:103B3000808180688083EA89FB8980818F7D808392
:103B4000DF91CF911F91FF90EF90DF90CF9008957C
:103B50001F920F920FB60F9211242F938F939F9362
:103B6000EF93FF93E091B504F091B6048081E0916A
:103B7000BB04F091BC0482FD12C090818091BE0410
:103B80008F5F8F732091BF04821751F0E091BE04C4
:103B9000F0E0EB55FB4F958F8093BE0401C0808110
:103BA000FF91EF919F918F912F910F900FBE0F90EA
:103BB0001F9018951F920F920FB60F9211242F93FA
:103BC0003F934F935F936F937F938F939F93AF93A5
:103BD000BF93EF93FF9385EA94E00E94B91CFF9195
:103BE000EF91BF91AF919F918F917F916F915F9175
:103BF0004F913F912F910F900FBE0F901F901895EE
:103C000085EA94E00E947D1C21E0892B09F420E0E4
:103C1000822F0895E5EAF4E01382128288EE93E0A1
:103C2000A0E0B0E084839583A683B78389EF92E018
:103C30009183808385EC90E09587848784EC90E085
:103C40009787868780EC90E0918B808B81EC90E069
:103C5000938B828B82EC90E0958B848B86EC90E04A
:103C6000978B868B118E128E138E148E08958F92E1
:103C70009F92AF92BF92CF92DF92EF92FF920F93FB
:103C80001F93CF93DF937C018B016C0182E0C80E00
:103C9000D11C4701E5E08E0E911CC0E0D0E0F6019A
:103CA00061916F014AE050E0C8010E94C91F5C01A8
:103CB0006EE2C8010E94FA1E8A0D9B1DC80FD91F13
:103CC000C814D90461F74AE050E0F7016581C801E2
:103CD0000E94C91F8C0F9D1FDF91CF911F910F91E3
:103CE000FF90EF90DF90CF90BF90AF909F908F901C
:103CF000089529E033E0FC0131832083128213828E
:103D00001482158208950F93FC0189E093E091835A
:103D1000808362834383248305830F910895E2E4C3
:103D2000F5E089E093E0918380831282138214820C
:103D30001582089508950E9485210E949A1E0E946E
:103D40006A1BCBEADCE10E94F71B2097E1F30E949B
:103D5000AB1CF9CFCF92DF92EF92FF920F931F939C
:103D6000CF93DF936C017A018B01C0E0D0E0CE15D8
:103D7000DF0589F0D8016D918D01D601ED91FC919F
:103D80000190F081E02DC6010995892B11F47E0187
:103D900002C02196ECCFC701DF91CF911F910F9107
:103DA000FF90EF90DF90CF9008956115710579F045
:103DB000FB0101900020E9F73197AF01461B570B3B
:103DC000DC01ED91FC910280F381E02D099480E00B
:103DD00090E00895DC01ED91FC91DB0114964D918A
:103DE0005C9115976D917C910280F381E02D09948F
:103DF0000C94D51EDC01ED91FC910190F081E02D39
:103E0000099463EA72E00C94D51E0F931F93CF932D
:103E1000DF93EC010E94D51E8C01CE010E94011F90
:103E2000800F911FDF91CF911F910F9108958F9275
:103E30009F92AF92BF92CF92DF92EF92FF920F9339
:103E40001F93CF93DF93CDB7DEB7A1970FB6F8944A
:103E5000DEBF0FBECDBF7C01D42EC52EDB0119A263
:103E6000223008F42AE08E010F5D1F4F822E912C24
:103E7000A12CB12C6D2D7C2DCD01A50194010E94AA
:103E80007A23D22EC32EDA01015011096A3071054E
:103E90008105910510F4605D01C0695CF8016083E3
:103EA000232B242B252B31F7B801C7010E94D51EE7
:103EB000A1960FB6F894DEBF0FBECDBFDF91CF91B4
:103EC0001F910F91FF90EF90DF90CF90BF90AF9038
:103ED0009F908F900895CF92DF92EF92FF920F9371
:103EE0001F93CF93DF93EC016A017B01211531050C
:103EF00079F4E881F9810190F081E02D642FDF9160
:103F0000CF911F910F91FF90EF90DF90CF90099488
:103F10002A303105E9F477FF1AC06DE20E94FA1EDB
:103F20008C0144275527BA014C195D096E097F0998
:103F30002AE0CE010E94171F800F911FDF91CF91C1
:103F40001F910F91FF90EF90DF90CF9008952AE09E
:103F5000B701A601CE01DF91CF911F910F91FF9084
:103F6000EF90DF90CF900C94171F9A01AB01770F61
:103F7000660B770B0C946B1F2115310541F4DC01A6
:103F8000ED91FC910190F081E02D642F09940C9447
:103F9000171F9A01462F50E060E070E00C94BC1FA0
:103FA0009A01AB0160E070E00C94BC1F0F931F936B
:103FB000CF93DF93EC010E941821688779878A8765
:103FC0009B87E881F9810680F781E02DCE01099574
:103FD00097FF17C00E941821088519852A853B85FF
:103FE000DC01CB01801B910BA20BB30B0C811D815B
:103FF0002E813F8180179107A207B30710F38FEF3F
:104000009FEFDF91CF911F910F9108954F925F9293
:104010006F927F928F929F92AF92BF92CF92DF92D8
:10402000EF92FF920F931F93CF93DF938C01EB01DD
:1040300086E0849F4001859F900C1124860E971E78
:10404000FB01E815F905F8F482819381892B11F1C0
:104050003696F7CF6081718144815581DB01A40FD1
:10406000B51F2C9130E08217930711F54F5F5F4F1A
:1040700055834483228133814217530759F0369682
:10408000E815F90538F3C8010E94D61F97FD44C012
:10409000FE01F6CFEC1BFD0BF595E7952BEA3AEA0E
:1040A000E29FC001E39F900DF29F900D112436C056
:1040B0004115510521F3C480D58096012150310965
:1040C00035832483DB01A20FB31FAC91B0E08A17C4
:1040D0009B07F9F421153105C9F05B017A01E21A59
:1040E000F30AE60EF71E412C512CD5016D905D01AF
:1040F000D7017D907D01671006C0BFEF4B1A5B0AA8
:104100004216530690F342165306A9F6D582C4828E
:10411000B6CF232B81F6B3CF8FEF9FEFDF91CF91F7
:104120001F910F91FF90EF90DF90CF90BF90AF90D5
:104130009F908F907F906F905F904F900895CF9356
:10414000DF9300D000D000D0CDB7DEB7FE013196AE
:1041500026E0DF011D922A95E9F77A8369835C8363
:104160004B8341E050E0BF010E94062021E0892BF3
:1041700009F020E0822F26960FB6F894DEBF0FBE1E
:10418000CDBFDF91CF910895FB0101900020E9F7A9
:104190003197AF01461B570B0C949F201F920F9233
:1041A0000FB60F9211242F933F938F939F93AF934A
:1041B000BF938091490590914A05A0914B05B0911C
:1041C0004C053091480523E0230F2D3720F401964C
:1041D000A11DB11D05C026E8230F0296A11DB11D2A
:1041E000209348058093490590934A05A0934B0579
:1041F000B0934C0580914D0590914E05A0914F05CF
:10420000B09150050196A11DB11D80934D0590936D
:104210004E05A0934F05B0935005BF91AF919F916C
:104220008F913F912F910F900FBE0F901F90189577
:104230002FB7F8946091490570914A0580914B051C
:1042400090914C052FBF08953FB7F89480914D058C
:1042500090914E05A0914F05B091500526B5A89BB1
:1042600005C02F3F19F00196A11DB11D3FBFBA2F08
:10427000A92F982F8827820F911DA11DB11DBC0168
:10428000CD0142E0660F771F881F991F4A95D1F72D
:1042900008958F929F92AF92BF92CF92DF92EF924A
:1042A000FF926B017C010E9424214B015C01C1142F
:1042B000D104E104F10401F10E9479230E94242138
:1042C000DC01CB0188199909AA09BB09883E9340F2
:1042D000A105B10560F321E0C21AD108E108F10897
:1042E00088EE880E83E0981EA11CB11CC114D10475
:1042F000E104F10419F7DBCFFF90EF90DF90CF904E
:10430000BF90AF909F908F900895789484B582600D
:1043100084BD84B5816084BD85B5826085BD85B569
:10432000816085BDEEE6F0E0808181608083E1E818
:10433000F0E0108280818260808380818160808350
:10434000E0E8F0E0808181608083E1EBF0E0808153
:1043500084608083E0EBF0E0808181608083EAE725
:10436000F0E08081846080838081826080838081AE
:10437000816080838081806880831092C10008956D
:10438000833081F028F4813099F08230A1F00895D3
:104390008730A9F08830B9F08430D1F48091800062
:1043A0008F7D03C0809180008F7780938000089577
:1043B00084B58F7702C084B58F7D84BD08958091C8
:1043C000B0008F7703C08091B0008F7D8093B000E4
:1043D0000895CF93DF9390E0FC01E850FD4F2491C6
:1043E000FC01E45FFC4F8491882361F190E0880F29
:1043F000991FFC01EC5CFC4FC591D491FC01E65D7A
:10440000FC4FA591B491611109C09FB7F8948881C0
:10441000209582238883EC912E230BC0623061F4B7
:104420009FB7F8943881822F809583238883EC91FD
:104430002E2B2C939FBF06C08FB7F894E8812E2BAC
:1044400028838FBFDF91CF9108951F93CF93DF9380
:10445000282F30E0F901EC51FD4F8491F901E8502B
:10446000FD4FD491F901E45FFC4FC491CC23C9F016
:10447000162F81110E94C021EC2FF0E0EE0FFF1FDC
:10448000E65DFC4FA591B4918FB7F894111105C06A
:104490009C91ED2FE095E92302C0EC91ED2BEC937C
:1044A0008FBFDF91CF911F910895FC018081918191
:1044B0000C943724CF93DF93EC0188819981009786
:1044C00011F00E943724198218821D821C821B82DF
:1044D0001A82DF91CF9108950F931F93CF93DF93AB
:1044E000EC018B016F5F7F4F888199810E94CF24FF
:1044F000009731F0998388831B830A8381E001C090
:1045000080E0DF91CF911F910F910895CF93DF93BA
:10451000EC0188819981892B29F08A819B818617FA
:10452000970760F4CE010E946C22882341F08C81B1
:104530009D81892B19F4E881F981108281E0DF9156
:10454000CF910895EF92FF920F931F93CF93DF9334
:10455000EC017B018A01BA010E948622811104C00C
:10456000CE010E945A2207C01D830C83B7018881A7
:1045700099810E94A225CE01DF91CF911F910F91C9
:10458000FF90EF900895FC01118210821382128235
:10459000158214826115710551F0FB010190002014
:1045A000E9F73197AF01461B570B0C94A2220895EF
:1045B000EF92FF920F931F93CF93DF93FC0124811F
:1045C00035816115710511F480E019C0411551055F
:1045D000A9F07B01EC018A01020F131FB8010E94B0
:1045E0008622882389F3288139818C819D81B701B6
:1045F000820F931F0E94A2251D830C8381E0DF910F
:10460000CF911F910F91FF90EF9008956115710563
:1046100051F0FB0101900020E9F73197AF01461BF3
:10462000570B0C94D82280E00895CF93DF9300D0ED
:10463000CDB7DEB769831A8241E050E0BE016F5FFB
:104640007F4F0E94D8220F900F90DF91CF91089555
:10465000EF92FF920F931F93CF93DF93CDB7DEB707
:1046600028970FB6F894DEBF0FBECDBF7C01CB01FB
:104670004AE08E010F5F1F4FB8010E94C325F80169
:1046800001900020E9F73197AF01401B510BB801B1
:10469000C7010E94D82228960FB6F894DEBF0FBE3D
:1046A000CDBFDF91CF911F910F91FF90EF900895B3
:1046B000CF93DF93FC01248135814217530780F4A7
:1046C000FB01DC01CD91DC9160817181CE01840F11
:1046D000951F0E94A925009719F08C1B9D0B02C005
:1046E0008FEF9FEFDF91CF91089540E050E00C9461
:1046F00058230895A1E21A2EAA1BBB1BFD010DC071
:10470000AA1FBB1FEE1FFF1FA217B307E407F50781
:1047100020F0A21BB30BE40BF50B661F771F881F5D
:10472000991F1A9469F760957095809590959B01F3
:10473000AC01BD01CF010895EE0FFF1F0590F4916C
:10474000E02D0994CF93DF938230910510F482E03D
:1047500090E0E0915305F091540520E030E0C0E096
:10476000D0E0309711F14081518148175907C0F0CE
:104770004817590761F482819381209719F09B8330
:104780008A832BC0909354058093530526C021152E
:10479000310519F04217530718F49A01BE01DF01E1
:1047A000EF010280F381E02DDCCF2115310509F105
:1047B000281B390B2430310590F412968D919C9171
:1047C00013976115710521F0FB019383828304C067
:1047D0009093540580935305FD01329644C0FD012A
:1047E000E20FF31F81939193225031092D933C9353
:1047F0003AC02091510530915205232B41F420916C
:10480000020130910301309352052093510520910C
:104810000001309101012115310541F42DB73EB75A
:104820004091040150910501241B350BE091510585
:10483000F0915205E217F307A0F42E1B3F0B281747
:10484000390778F0AC014E5F5F4F2417350748F009
:104850004E0F5F1F509352054093510581939193E2
:1048600002C0E0E0F0E0CF01DF91CF9108950F9317
:104870001F93CF93DF93009709F48CC0FC0132970C
:1048800013821282009153051091540501151105F0
:1048900081F420813181820F931F20915105309145
:1048A00052052817390779F5F0935205E093510521
:1048B00071C0D80140E050E0AE17BF0750F4129627
:1048C0002D913C911397AD012115310509F1D901C5
:1048D000F3CF9D01DA013383228360817181860FDA
:1048E000971F8217930769F4EC0128813981260FFD
:1048F000371F2E5F3F4F318320838A819B819383B3
:104900008283452B29F4F0935405E093530542C06C
:104910001396FC93EE931297ED01499159919E01E4
:10492000240F351FE217F30771F480819181840F02
:10493000951F029611969C938E9382819381139674
:104940009C938E931297E0E0F0E0D80112968D913F
:104950009C911397009719F0F8018C01F6CF8D9177
:104960009C9198012E5F3F4F820F931F209151051C
:10497000309152052817390769F4309729F41092BD
:1049800054051092530502C01382128210935205EF
:1049900000935105DF91CF911F910F910895A0E0F1
:1049A000B0E0E5EDF4E20C94FC25EC01009721F475
:1049B000CB010E94A223B8C0FC01E60FF71F9C01A7
:1049C00022503109E217F30708F4ACC0D9010D9168
:1049D0001C91119706171707B0F00530110508F460
:1049E0009FC0C80104978617970708F499C0025022
:1049F0001109061B170B019311936D937C93CF0143
:104A00000E9437248DC05B01A01AB10A4C01800EB0
:104A1000911EA0915305B091540540E050E0E12C67
:104A2000F12C109709F44AC0A815B905D1F56D907D
:104A30007C901197630182E0C80ED11CCA14DB047C
:104A400080F1A3014A195B096A0182E0C80ED11CFA
:104A50001296BC9012971396AC91B5E0CB16D10488
:104A600040F0B282A38351834083D9016D937C933C
:104A70000AC00E5F1F4FC301800F911FF901918380
:104A80008083EB2DFA2FE114F10431F0D701139656
:104A9000FC93EE93129744C0F0935405E0935305B2
:104AA0003FC08D919C9111974817590708F4AC01AC
:104AB0007D0112960D90BC91A02DB3CF8091510530
:104AC0009091520588159905E1F446175707C8F4E7
:104AD0008091000190910101009741F48DB79EB73C
:104AE0004091040150910501841B950BE817F907CB
:104AF000C8F4F0935205E0935105F9017183608386
:104B00000FC0CB010E94A2237C01009759F0A8019D
:104B1000BE010E949925CE010E943724C70104C01E
:104B2000CE0102C080E090E0CDB7DEB7EEE00C949D
:104B30001826FB01DC0102C001900D92415050404B
:104B4000D8F70895FB01DC0101900D920020E1F7F8
:104B50000895FB0151915523A9F0BF01DC014D914E
:104B600045174111E1F759F4CD010190002049F0BA
:104B70004D9140154111C9F3FB014111EFCF81E087
:104B800090E001970895BB274A3031F4992322F42D
:104B9000BDE2909581959F4F0C94CF25BB27FB01DB
:104BA0005527AA27880F991FAA1FA41710F0A41B26
:104BB00083955051B9F7A05DAA3308F0A95DA19380
:104BC000009779F7B111B1931192CB010C94E825BC
:104BD000DC01FC01672F71917723E1F7329704C064
:104BE0007C916D9370836291AE17BF07C8F30895EF
:104BF0002F923F924F925F926F927F928F929F92ED
:104C0000AF92BF92CF92DF92EF92FF920F931F93DA
:104C1000CF93DF93CDB7DEB7CA1BDB0B0FB6F8948B
:104C2000DEBF0FBECDBF09942A88398848885F84CB
:104C30006E847D848C849B84AA84B984C884DF803C
:104C4000EE80FD800C811B81AA81B981CE0FD11D20
:104C50000FB6F894DEBF0FBECDBFED010895F894F6
:024C6000FFCF84
:104C6200000055052000100250006170692E746822
:104C7200696E67737065616B2E636F6D00DB02A5F1
:104C820002A502EC022000000000001E0538059E6D
:104C920005C205D505E8059D045F04DD030806BECF
:104CA20003D00300000000B4083B09A6068B068867
:104CB200062D09FEFF0000380986062254435022C1
:104CC2002C22004F4B205265636569766564004370
:104CD2006F6E6E656374204F4B002B2B2B00000010
:104CE2000000710974091C0A9E099A099D092A0B80
:104CF20077099809AE09A5099909B7099F0BE90B2C
:104D0200140A530BD509D60BFDFF0000E60B110A5E
:104D120000000000E10DAD0EEE0EFEFF0000FD0EE4
:104D2200860600000000591002110B0FFEFF000062
:104D32001C11AA1E0000000051114B114E116211EC
:104D420015125F11581106122F12FEFF00001212E7
:104D5200801252454144222C2200220D003E002B9B
:104D6200434D474C3A000D0A0D0A2B000D0A0D0A5D
:104D72004F4B0000000000FC1256143214801394B2
:104D820012D41483125A14A9121514FEFF00002F14
:104D92001486063B0D002B434C43433A20312C3101
:104DA2002C342C302C302C2200000000000A15116B
:104DB200159016ED162E16FA140715E31508173876
:104DC20015FEFF00001717E015000000001A17AAD1
:104DD2001EBF1728173317AA1700000000E117AAF1
:104DE20018E917474554202F7570646174653F6157
:104DF20070695F6B65793D00266669656C64313D5B
:104E0200000D0A0D0A0041542B43495053454E44AC
:104E12003D00446F6E6500323637373636323533F1
:104E2200006F6E0052454C4159204F4E006F66662E
:104E32000052454C4159204F464600564B4B565462
:104E4200313449325535373342505A00696E7465F0
:104E5200726E65740000000000FC1CAA1E7D1C9787
:104E62001C891CDA1C00000000371E6E616E00698E
:0A4E72006E66006F7666002E0000E9
:00000001FF
